:020000040800F2
:1000000000000820CD8900080D1300081313000814
:10001000191300081F130008251300080000000032
:100020000000000000000000000000002B1300088A
:10003000391300080000000047130008551300089A
:100040001D8A00081D8A00081D8A00081D8A0008F4
:100050001D8A00081D8A00081D8A00081D8A0008E4
:100060001D8A00081D8A00081D8A00081D8A0008D4
:100070001D8A00081D8A00081D8A00081D8A0008C4
:100080001D8A00081D8A00081D8A00081D8A0008B4
:100090001D8A00081D8A00081D8A00081D8A0008A4
:1000A0001D8A00081D8A00081D8A00081D8A000894
:1000B0001D8A00081D8A00081D8A00081D8A000884
:1000C0001D8A00081D8A00081D8A00081D8A000874
:1000D0001D8A00081D8A0008B91500081D8A00083D
:1000E0001D8A00081D8A00081D8A00081D8A000854
:1000F0001D8A00081D8A00081D8A00081D8A000844
:100100001D8A00081D8A00081D8A00081D8A000833
:100110001D8A00081D8A00081D8A00081D8A000823
:10012000611300081D8A00081D8A00081D8A000846
:100130001D8A00081D8A00081D8A00081D8A000803
:100140001D8A00081D8A00081D8A00087513000812
:100150001D8A00081D8A00081D8A00081D8A0008E3
:100160001D8A00081D8A00081D8A00081D8A0008D3
:100170001D8A00081D8A00081D8A00080000000072
:100180001D8A00081D8A00081D8A00081D8A0008B3
:100190001D8A00081D8A00081D8A00081D8A0008A3
:1001A0001D8A00081D8A00081D8A00081D8A000893
:1001B0001D8A00081D8A00081D8A00081D8A000883
:1001C0001D8A00081D8A0008000000001D8A000822
:1001D0001D8A00081D8A00081D8A00081D8A000863
:1001E0001D8A00081D8A00081D8A00081D8A000853
:0801F0001D8A00081D8A0008A9
:1002000010B5054C237833B9044B13B10448AFF350
:1002100000800123237010BDE801002000000000D1
:1002200014E4000808B5034B1BB103490348AFF3BE
:10023000008008BD00000000EC01002014E400086C
:100240004B1C012B98BF70472DE9F003911C9B08B4
:10025000B1F80480B1F802900A8831F802CC8044E9
:10026000814402448444D9F80070D8F800601568CD
:10027000DCF80040C9F80060C8F80070CCF8005005
:100280001460D9F80470D8F804605568DCF80440AC
:10029000C9F80460C8F80470CCF804505460083100
:1002A000013BD5D1BDE8F00370474B1C012B98BF33
:1002B00070472DE9F003911C9B08B1F80480B1F858
:1002C00002900A8831F802CC00EB580800EB59097B
:1002D00000EB520200EB5C0CD9F80070D8F800601B
:1002E0001568DCF80040C9F80060C8F80070CCF868
:1002F000005014600831013BDFD1BDE8F0037047C6
:10030000034613F8012B002AFBD1181A0138704755
:1003100001F0FF01102A2BDB10F0070F08D010F8B6
:10032000013B013A8B422DD010F0070F42B3F6D1BA
:10033000F0B441EA012141EA014122F007047FF0D3
:1003400000070023F0E80256083C85EA010586EA2A
:10035000010685FA47F5A3FA87F586FA47F6A5FA66
:1003600087F68EB9EED1F0BC01F0FF0102F0070272
:1003700032B110F8013B013A83EA010313B1F8D11D
:100380000020704701387047002D06BF35460338FE
:10039000073815F0010F07D1013015F4807F02BF37
:1003A000013015F4C03F0130F0BC0138704700BF88
:1003B00081F0004102E000BF83F0004330B54FEA16
:1003C00041044FEA430594EA050F08BF90EA020F83
:1003D0001FBF54EA000C55EA020C7FEA645C7FEA16
:1003E000655C00F0E2804FEA5454D4EB5555B8BF39
:1003F0006D420CDD2C4480EA020281EA030382EAAA
:10040000000083EA010180EA020281EA0303362D3B
:1004100088BF30BD11F0004F4FEA01314FF4801C0E
:100420004CEA113102D0404261EB410113F0004F20
:100430004FEA03334CEA133302D0524263EB4303D7
:1004400094EA050F00F0A780A4F10104D5F1200E75
:100450000DDB02FA0EFC22FA05F2801841F10001D0
:1004600003FA0EF2801843FA05F359410EE0A5F1A4
:1004700020050EF1200E012A03FA0EFC28BF4CF0D5
:10048000020C43FA05F3C01851EBE37101F000458B
:1004900007D54FF0000EDCF1000C7EEB00006EEB98
:1004A0000101B1F5801F1BD3B1F5001F0CD3490822
:1004B0005FEA30004FEA3C0C04F101044FEA445279
:1004C00012F5800F80F09A80BCF1004F08BF5FEA00
:1004D000500C50F1000041EB045141EA050130BDE0
:1004E0005FEA4C0C404141EB0101013C28BFB1F5F2
:1004F000801FE9D291F0000F04BF01460020B1FA3D
:1005000081F308BF2033A3F10B03B3F120020CDA0F
:100510000C3208DD02F1140CC2F10C0201FA0CF0ED
:1005200021FA02F10CE002F11402D8BFC2F1200C52
:1005300001FA02F120FA0CFCDCBF41EA0C01904008
:10054000E41AA2BF01EB0451294330BD6FEA040451
:100550001F3C1CDA0C340EDC04F11404C4F120023C
:1005600020FA04F001FA02F340EA030021FA04F34E
:1005700045EA030130BDC4F10C04C4F1200220FAA5
:1005800002F001FA04F340EA0300294630BD21FAE3
:1005900004F0294630BD94F0000F83F4801306BFA9
:1005A00081F480110134013D4EE77FEA645C18BF9D
:1005B0007FEA655C29D094EA050F08BF90EA020F34
:1005C00005D054EA000C04BF1946104630BD91EA2C
:1005D000030F1EBF0021002030BD5FEA545C05D12F
:1005E0004000494128BF41F0004130BD14F580046E
:1005F0003CBF01F5801130BD01F0004545F0FE41E2
:1006000041F470014FF0000030BD7FEA645C1ABF16
:10061000194610467FEA655C1CBF0B46024650EA4D
:10062000013406BF52EA033591EA030F41F4002179
:1006300030BD00BF90F0000F04BF0021704730B5FF
:100640004FF4806404F132044FF000054FF00001D4
:1006500050E700BF90F0000F04BF0021704730B595
:100660004FF4806404F1320410F0004548BF40426A
:100670004FF000013EE700BF42004FEAE2014FEABF
:1006800031014FEA02701FBF12F07F4393F07F4F9A
:1006900081F06051704732F07F4208BF704793F09D
:1006A0007F4F04BF41F40021704730B54FF46074B0
:1006B00001F0004521F000411CE700BF50EA0102B3
:1006C00008BF704730B54FF000050AE050EA01025C
:1006D00008BF704730B511F0004502D5404261EBCC
:1006E00041014FF4806404F132045FEA915C3FF40D
:1006F000D8AE4FF003025FEADC0C18BF03325FEAAA
:10070000DC0C18BF033202EBDC02C2F1200300FA5A
:1007100003FC20FA02F001FA03FE40EA0E0021FA7F
:1007200002F11444BDE600BF53B94AB9002908BF1D
:1007300000281CBF4FF0FF314FF0FF3000F0A6B98A
:10074000ADF1080C6DE904CE00F03EF8DDF804E0F0
:10075000DDE9022304B0704708B502460B4643ECBE
:10076000172BB5EEC07BF1EE10FA03D4BDE80840BC
:1007700000F00AB8B1EE477B51EC170B00F004F81B
:10078000404261EB410108BD9FED0B6B41EC170B43
:100790009FED0B5B27EE066BBCEEC66BB8EE464BCF
:1007A000A4EE457BFCEEC77B16EE101A17EE900AFE
:1007B000704700BFAFF30080000000000000F03D74
:1007C000000000000000F0412DE9F047089D0446BC
:1007D0008C46002B40F083808A42174647D9B2FAF4
:1007E00082F242B1C2F1200024FA00F09140974019
:1007F00040EA010C94404FEA1748230CBCFBF8F682
:100800001FFA87FE08FB16C143EA014306FB0EF1FF
:10081000994209D9FB1806F1FF3080F019819942FD
:1008200040F21681023E3B445B1AA4B2B3FBF8F0DF
:1008300008FB103344EA034400FB0EFEA64509D929
:100840003C1900F1FF3380F00581A64540F202819A
:1008500002383C4440EA0640A4EB0E0400261DB1D9
:10086000D4400023C5E900433146BDE8F08702B912
:10087000FFDEB2FA82F2002A50D1CB1B4FEA174EAC
:100880001FFA87F80126B3FBFEFC210C0EFB1C337C
:1008900041EA034108FB0CF38B4207D979180CF1AC
:1008A000FF3002D28B4200F2E9808446C91AA3B21B
:1008B000B1FBFEF00EFB101143EA014408FB00F807
:1008C000A04507D93C1900F1FF3302D2A04500F240
:1008D000D9801846A4EB080440EA0C40BFE78B42DD
:1008E00009D9002D00F0B1800026C5E9000130468D
:1008F0003146BDE8F087B3FA83F6002E4AD18B4229
:1009000002D3824200F2B880841A61EB0301012015
:100910008C46002DA8D0C5E9004CA5E7C2F1200304
:1009200020FA03F6974001FA02F04FEA174ED94039
:100930003043030CB1FBFEF61FFA87F80EFB1611CD
:1009400043EA014306FB08F1994204FA02F409D98B
:10095000FB1806F1FF3C80F08D80994240F28A80BE
:10096000023E3B445B1A81B2B3FBFEF00EFB103338
:1009700041EA034100FB08F38B4207D9791800F1E3
:10098000FF3C73D28B4271D902383944CB1A40EA0A
:10099000064678E7C6F1200C03FA06F422FA0CF3B7
:1009A0001C4320FA0CF701FA06F34FEA144E21FA21
:1009B0000CF11F433B0CB1FBFEF91FFA84F80EFB50
:1009C000191143EA014109FB08FA8A4502FA06F2C5
:1009D00000FA06F308D9611809F1FF3048D28A45B8
:1009E00046D9A9F102092144A1EB0A01BFB2B1FB2A
:1009F000FEF00EFB101147EA014700FB08F8B8456E
:100A000007D9E71900F1FF312ED2B8452CD90238A9
:100A1000274440EA0940A7EB0807A0FB02894F459D
:100A2000C64649461AD317D05DB1B3EB0E0267EB49
:100A3000010707FA0CFCF2404CEA0202F740C5E954
:100A4000002700263146BDE8F0872E4628460BE7F2
:100A50000646E9E61846FDE64345E5D2B8EB020E48
:100A600069EB04010138DFE70846D2E760468DE70D
:100A70008146B9E7664675E730464AE7ACF1020CB5
:100A8000394413E702383C4424E700BF704700BFF5
:100A900080B584B000AF0346FB800B4BFB60FB6866
:100AA00007EE903AF8EE677A084BC3ED077A084AEA
:100AB000FB881380FB881946064807F0B1FF00BF8A
:100AC0001037BD4680BD00BF809698007884022014
:100AD000148402201884022090B587B004AF00F07F
:100AE00023FB01F025FA7D4B05221A807B4B28223F
:100AF0005A807A4B1B88C3F5F0739AB2774B9A8071
:100B0000764B40F23B12DA80744B4FF478421A82F3
:100B1000002000F0EBF8714B1888704B59886F4B30
:100B20009A886E4BDB884FF6FF74009401F07AFAD6
:100B30006A4B1B8801339AB2684B1A81674B4FF49A
:100B400096725A81654B1A89644B9A81634B598816
:100B5000624BDA884FF6E07300930323632001F0C1
:100B600022FB5E4B59885D4BDA884FF6E0730093A9
:100B70000323BB2001F017FB584B5988574BDA88E9
:100B80004FF6E073009303234FF48C7001F00BFBDE
:100B9000524B5988514BDA884FF6E0730093032388
:100BA0004FF4BB7001F0FFFA4D4B5B699BB2013310
:100BB0009BB200220292002201924FF478420092EE
:100BC00000221421282001F07BFC454BD3ED047A50
:100BD000FCEEE77A17EE903A9BB2002202920022D6
:100BE00001924FF47842009200221421782001F003
:100BF00067FC3A4BDB8A7B605AE0384B9B890133B8
:100C00009AB2364B9A81354B9A89344B9B889A42DB
:100C100006D9324B9B88013B9AB2304B9A8103E054
:100C20002E4B9A892D4B9A812E4A7B689B00134448
:100C3000D3ED007AB1EE047A67EE877A9FED2A7AD7
:100C400077EE677AFCEEE77A17EE903A9AB2234B8A
:100C5000DA81224B5B880133204AD289934206DB3A
:100C60001E4B5B8802339AB21C4BDA8103E01B4BAC
:100C7000DA891A4BDA81194B1B8918B2174B5B8939
:100C800019B2164B9B891AB2144BDB891CB2134B59
:100C90001B8A0093234601F0FEF9104BDA890F4BB3
:100CA0005A810E4B9A890D4B1A817B6801337B6008
:100CB0000A4B5B8B1A467B6893429EDB074B0022F4
:100CC0001A81064B00225A81044B00229A81034B61
:100CD0000022DA8100BF0C37BD4690BDB4840220EB
:100CE00078840220040200200000964380B483B080
:100CF00000AF0346FB800B4AFB88D382094B9B88DD
:100D0000013B9AB2074B1A83064BDA8A054B1B8BC1
:100D100013449AB2034B5A8300BF0C37BD465DF8AB
:100D2000047B7047B484022080B400AFBFF34F8FC0
:100D300000BFBFF36F8F00BF0D4B0022C3F85022DE
:100D4000BFF34F8F00BFBFF36F8F00BF084B5B69CE
:100D5000074A43F400335361BFF34F8F00BFBFF323
:100D60006F8F00BF00BFBD465DF8047B704700BFBA
:100D700000ED00E080B485B000AF1F4B0022C3F847
:100D80008420BFF34F8F00BF1B4BD3F880307B60B4
:100D90007B685B0BC3F30E03FB607B68DB08C3F36C
:100DA0000903BB60FB685A0143F6E0731340BA685D
:100DB000920711491343C1F86032BB685A1EBA60EA
:100DC000002BEFD1FB685A1EFA60002BE5D1BFF370
:100DD0004F8F00BF084B5B69074A43F48033536170
:100DE000BFF34F8F00BFBFF36F8F00BF00BF14373B
:100DF000BD465DF8047B704700ED00E080B584B02F
:100E000000AFF860B9607A60FB68012B0AD0FB681C
:100E1000022B07D008F0F6FE034609221A604FF0B5
:100E2000FF3304E07968B86807F046FB7B68184632
:100E30001037BD4680BD000080B500AFFFF774FFDE
:100E4000FFF798FF01F0B2FF00F044F800F024F93A
:100E500000F022F800F0CEF84FF480520C490D4813
:100E600002F06AF800F05CFC012000F0D3FE01F013
:100E7000DBFD4FF47A7001F0F7FF01F059F8012023
:100E8000FFF706FE00F03EF9FFF726FEFCE700BF85
:100E9000D08402203084022080B582B000AF0C4B99
:100EA0001B6B0B4A43F480031363094B1B6B03F466
:100EB00080037B607B6800220021382002F0F5FC73
:100EC000382002F00EFD00BF0837BD4680BD00BFD0
:100ED0000038024080B5B8B000AF07F1AC0334224F
:100EE0000021184608F0C0FE07F1980300221A609E
:100EF0005A609A60DA601A6107F1080390220021B3
:100F0000184608F0B1FE394B1B6C384A43F0805349
:100F10001364364B1B6C03F080537B607B68344B4F
:100F20001B68334A43F440431360314B1B6803F49E
:100F300040433B603B680123C7F8AC304FF480333B
:100F4000C7F8B0300223C7F8C4304FF48003C7F8A5
:100F5000C8300A23C7F8CC30D823C7F8D0300223D2
:100F6000C7F8D4300923C7F8D83007F1AC031846C6
:100F700004F0E0F90346002B01D000F0BDF804F0C6
:100F800089F90346002B01D000F0B6F80F23C7F80B
:100F900098300223C7F89C300023C7F8A0304FF4E4
:100FA000A053C7F8A4304FF48053C7F8A83007F116
:100FB00098030721184604F06BFC0346002B01D070
:100FC00000F09AF84FF40013BB600023C7F8843098
:100FD00007F10803184604F009FE0346002B01D070
:100FE00000F08AF800BFE037BD4680BD00380240FF
:100FF0000070004080B584B000AF3B4600221A600C
:101000005A609A60DA60214B214A1A601F4B4FF4F4
:1010100080325A601D4B00229A601C4B01221A61DB
:101020001A4B01229A61194B002283F82020174B9A
:101030000022DA62154B174A9A62144B0022DA60DA
:10104000124B0122DA61114B012283F830200F4B41
:1010500000225A610D4801F02BFF0346002B01D0FE
:1010600000F04AF809233B6001237B600023BB604A
:101070003B461946054802F077F80346002B01D09D
:1010800000F03AF800BF1037BD4680BD3084022022
:10109000002001400100000F80B485B000AF154B67
:1010A0001B6B144A43F080031363124B1B6B03F05A
:1010B0008003FB60FB680F4B1B6B0E4A43F002037F
:1010C00013630C4B1B6B03F00203BB60BB68094B43
:1010D0001B6B084A43F001031363064B1B6B03F0C1
:1010E00001037B607B6800BF1437BD465DF8047B5D
:1010F000704700BF0038024080B400AF72B600BF36
:10110000FEE7000080B500AF4FF48051044807F0BF
:1011100087FC0346DAB2034B1A7000BF80BD00BFE4
:1011200098840220D0A4022080B582B000AF0023B2
:10113000FB8020E0FB88224A32F8133007EE903A19
:10114000F8EEE77A9FED1F7A27EE877ADFED1E6AC9
:10115000C7EE267AB7EEE77A9FED176B37EE467B40
:10116000FB88F7EEC77B194A9B001344C3ED007A56
:10117000FB880133FB80FB88B3F5805FDAD34FF443
:101180008051134807F04CFC0346DAB2114B1A7039
:10119000104B1B78002B0BD100230F4A0B490C4836
:1011A00007F0F2FC4FF4805208490B4808F050F960
:1011B00000BF0837BD4680BD666666666666FA3F54
:1011C000D0840220333353400000804504020020C5
:1011D00098840220D0A402200442002080B483B06E
:1011E00000AF0F4B1B6C0E4A43F0805313640C4B43
:1011F0001B6C03F080537B607B68094B5B6C084A77
:1012000043F480435364064B5B6C03F480433B60C0
:101210003B6800BF0C37BD465DF8047B704700BFDC
:101220000038024080B58AB000AF786007F114033F
:1012300000221A605A609A60DA601A617B681B6843
:101240002D4A934254D12D4B5B6C2C4A43F480734E
:1012500053642A4B5B6C03F480733B613B69274BFF
:101260001B6B264A43F002031363244B1B6B03F0F2
:101270000203FB60FB6802237B610323BB61002345
:10128000FB6107F1140319461D4802F0BDFE1D4B1A
:101290001D4A1A601B4B00225A601A4B00229A60AA
:1012A000184B0022DA60174B4FF480621A61154B1D
:1012B0004FF400625A61134B4FF400529A61114B84
:1012C0004FF48072DA610F4B4FF400321A620D4B0B
:1012D00000225A620B4802F01FFB0346002B01D08C
:1012E000FFF70AFF7B68074A9A63064A7B689363A5
:1012F00000BF2837BD4680BD0020014000380240B5
:10130000000402400CC702207064024080B400AFA9
:10131000FEE780B400AFFEE780B400AFFEE780B424
:1013200000AFFEE780B400AFFEE780B400AF00BFBF
:10133000BD465DF8047B704780B400AF00BFBD467A
:101340005DF8047B704780B400AF00BFBD465DF818
:10135000047B704780B500AF01F066FD00BF80BD23
:1013600080B500AF024802F0E5FB00BF80BD00BFC2
:101370000CC7022080B500AF024802F0F1FF00BFA9
:1013800080BD00BF38CB022080B400AF01231846D7
:10139000BD465DF8047B704780B582B000AF7860D1
:1013A000396008F02FFC034616221A604FF0FF3315
:1013B00018460837BD4680BD80B582B000AF786062
:1013C0004FF0FF317868FFF7E7FFFEE780B586B0A2
:1013D00000AFF860B9607A6000237B610AE0AFF388
:1013E00000800146BB685A1CBA60CAB21A707B6999
:1013F00001337B617A697B689A42F0DB7B6818462F
:101400001837BD4680BD000080B584B000AF78605D
:10141000114B1B68002B02D10F4B104A1A600E4B68
:101420001B68FB600C4B1A687B6813446A46934246
:1014300007D908F0E7FB03460C221A604FF0FF3390
:1014400006E0054B1A687B681344034A1360FB6887
:1014500018461037BD4680BD04C200204CCF022084
:1014600080B483B000AF78604FF0FF3318460C377C
:10147000BD465DF8047B704780B483B000AF7860F0
:1014800039603B684FF400525A60002318460C370D
:10149000BD465DF8047B704780B483B000AF7860D0
:1014A000012318460C37BD465DF8047B704780B4B5
:1014B00085B000AFF860B9607A6000231846143731
:1014C000BD465DF8047B704780B400AF064BD3F88F
:1014D0008830054A43F47003C2F8883000BFBD4627
:1014E0005DF8047B704700BF00ED00E080B483B07E
:1014F00000AF0346FB7197F90730002B0CDBFB793B
:1015000003F01F02074997F907305B09012000FA31
:1015100002F2603341F8232000BF0C37BD465DF86E
:10152000047B704700E100E080B483B000AF034665
:10153000FB7100BF074BDB6903F04003002BF9D0C0
:10154000044AFB79936200BF0C37BD465DF8047B0B
:10155000704700BF004400400FB480B5C2B000AF78
:10156000002387F8073107F58A723B461A603B462D
:10157000381D1B68D7F810214FF480710AF0DAFA91
:101580000AE097F807315A1C87F807211A463B1DD5
:101590009B5C1846FFF7C8FF97F807313A1DD35CEC
:1015A000002BEED100BF00BF07F58477BD46BDE834
:1015B000804004B07047000080B500AF054B5B6A07
:1015C000002B02D0044800F009F82620FFF78EFF18
:1015D00000BF80BD0044004000C8022080B584B038
:1015E00000AF78600023FB730023BB81184BDB69DD
:1015F00003F02003002B16D0154B5B6AFB73BB89ED
:101600005A1CBA811A467B681344FA7B1A70104B35
:101610009B690F4A43F0080393610D4B1B6A0C4A08
:1016200043F008031362FB7B0D2BDFD1BB89013B29
:10163000BB81BB897A68134400221A70054B0122D2
:101640005A707868FFF788FF00BF1037BD4680BD2D
:1016500000440040F4C7022080B584B000AF786039
:10166000144BDB69144AA2FB03239B0C7A6802FB30
:1016700003F3124AA2FB03235B08FB6000F032F87D
:101680000F4B00225A600E4B1B680D4A43F00103BA
:10169000136000BF0A4B5B68FA689A42FAD8084B9D
:1016A0001B68074A23F00103136000BF1037BD46D3
:1016B00080BD00BFC8C7022083DE1B43ABAAAAAA15
:1016C000001000E080B582B000AF78607B684FF416
:1016D0007A7202FB03F31846FFF7BEFF00BF08371C
:1016E000BD4680BD80B400AF0A4BDB68094A43F0B9
:1016F0008073D360084B094AC3F8B02F064B002211
:101700005A60054B00221A6000BFBD465DF8047B9D
:10171000704700BFF0ED00E0001000E055CEACC512
:1017200080B400AF084B5B6B074A43F04003536340
:10173000064B1B68054A43F00403136000BFBD4617
:101740005DF8047B704700BF003802400008065077
:1017500080B483B000AF0346FB71FA7913461B01D6
:1017600013445B00034A134418460C37BD465DF82A
:10177000047B704790E7000880B483B000AF034655
:10178000FB71FB792F2B0AD9FB79392B07D8FB7911
:10179000303B322202FB03F3044A134400E00023EF
:1017A00018460C37BD465DF8047B70479009010868
:1017B00080B483B000AF0346FB71FB792F2B0CD9AB
:1017C000FB79392B09D8FB79A3F1300213465B0171
:1017D00013445B00044A134400E0002318460C370E
:1017E000BD465DF8047B7047840B010880B483B06C
:1017F00000AF0346FB71FA7913469B0013445B006C
:10180000034A134418460C37BD465DF8047B704705
:10181000180E010880B582B000AF03460A46FB717E
:101820001346BB71FB79054A52F82330BA7910464A
:101830009847034618460837BD4680BD181801086A
:1018400080B483B000AF78607B681B7818460C3793
:10185000BD465DF8047B704780B483B000AF78600C
:101860007B6801337B607B681B7818460C37BD466C
:101870005DF8047B704700000EB480B5CBB004AFB8
:101880000246FB1D1A70484B4FF4FC625A80464BCF
:1018900000221A80FB1D1B78022B10D0022B13DCB8
:1018A000002B02D0012B05D00EE03F4B5B88A7F840
:1018B000163109E04FF62053A7F8163104E04FF433
:1018C0007843A7F8163100BF07F5947207F10803B3
:1018D0001A6007F1080307F10C001B68D7F82421F0
:1018E0004FF480710AF026F9304B1B881A4692009B
:1018F00013445B0099B207F10C02012302934FF6E7
:10190000FF730193B7F816310093134600220020AD
:1019100000F059FD07F10C031946254809F002FAB9
:10192000FB1D1B78002B0FD00023C7F8103105E0FA
:1019300000BFD7F810310133C7F81031D7F8103194
:101940004CF24F329342F3D9184B1B8801339AB2B1
:10195000164B1A80154B1B88202B1DD9134B0022C8
:101960001A800023C7F80C3105E000BFD7F80C310E
:101970000133C7F80C31D7F80C314CF24F32934297
:10198000F3D900F0D5FA084B1B88184600F07CFA12
:101990004FF47A70FFF796FE00BF07F58E77BD46CD
:1019A000BDE8804003B070476CC7022008C2002029
:1019B00030E4000880B483B000AF0346FB71044AF2
:1019C000FB79137000BF0C37BD465DF8047B704790
:1019D000FFFF01C080B483B000AF0346FB71044A2F
:1019E000FB79537000BF0C37BD465DF8047B704730
:1019F000FFFF01C080B400AF364B1B6B354A43F08C
:101A000008031363334B1B6B324A43F01003136319
:101A1000304B1B6B2F4A43F0200313632D4B1B6B82
:101A20002C4A43F0400313632A4B1B6B294A43F0B3
:101A300080031363274B1B6B264A43F00403136395
:101A4000254B264A1A60244B254A9A60224B4FF0B8
:101A5000CC121A62204B4FF04C425A621E4B1B684C
:101A60001D4A43F4000313601B4B9B681A4A43F45E
:101A700040039360184B5B6A174A43F44043536238
:101A8000184B4FF42A121A60164B4FF47F129A60CB
:101A9000144B4FF040421A62124B40F6CC425A624D
:101AA000114B02221A60104B03229A600E4B0C223B
:101AB0001A620E4B4FF400421A600C4B4FF4404236
:101AC0009A600A4B4FF010421A6200BFBD465DF8A3
:101AD000047B704700380240000C02400A0A00A054
:101AE0000F0F00F0001002400014024000080240F6
:101AF00080B400AF174B9B6B164A43F0010393630E
:101B0000144B5B6C134A43F480435364124B1B68C1
:101B1000114A43F4806313604FF0204300225A605F
:101B20004FF0204300221A604FF020431A684FF014
:101B300020410A4B13430B604FF020435A684FF08B
:101B40002041074B13434B6000BFBD465DF8047B4B
:101B5000704700BF00380240003801404319280098
:101B60002203201280B582B000AF0346FB71FB79DF
:101B700003F00303DAB2244B1A70234B1B78032BB8
:101B800036D801A252F823F0991B0008AF1B0008B9
:101B9000C51B0008DB1B00084823FB711B4B40F2F0
:101BA000E1121A801A4B40F241121A8020E02823D9
:101BB000FB71164B4FF4A0721A80154B4FF4F07264
:101BC0001A8015E08823FB71104B40F2E1121A8055
:101BD0000F4B40F241121A800AE0E823FB710B4BD5
:101BE0004FF4A0721A800A4B4FF4F0721A8000BFB3
:101BF0003620FFF7EFFEFB791846FFF7DBFE00BF4C
:101C00000837BD4680BD00BF0AC200200400002086
:101C10000600002080B586B000AF0346FB71FFF7D9
:101C2000E9FEFFF765FF0120FFF7D4FE00237B618B
:101C300003E000BF7B6901337B617B69584A9342B3
:101C4000F7D9B020FFF7C6FE0020FFF7B3FE3A2019
:101C5000FFF7C0FE5520FFF7ADFEE020FFF7BAFE0C
:101C60000F20FFF7A7FE1F20FFF7A4FE1C20FFF7A1
:101C7000A1FE0C20FFF79EFE0F20FFF79BFE082021
:101C8000FFF798FE4820FFF795FE9820FFF792FE99
:101C90003720FFF78FFE0A20FFF78CFE1320FFF797
:101CA00089FE0420FFF786FE1120FFF783FE0D203A
:101CB000FFF780FE0020FFF77DFEE120FFF78AFEA0
:101CC0000F20FFF777FE3220FFF774FE2E20FFF77C
:101CD00071FE0B20FFF76EFE0D20FFF76BFE052057
:101CE000FFF768FE4720FFF765FE7520FFF762FEED
:101CF0003720FFF75FFE0620FFF75CFE1020FFF79E
:101D000059FE0320FFF756FE2420FFF753FE202044
:101D1000FFF750FE0020FFF74DFEC520FFF75AFEEB
:101D20000020FFF747FE0020FFF744FE0020FFF7EA
:101D300041FE0020FFF73EFEC220FFF74BFE44208D
:101D4000FFF738FE3620FFF745FE0820FFF732FE8A
:101D50001120FFF73FFE00233B6103E000BF3B691A
:101D600001333B613B690F4A9342F7D92920FFF7C2
:101D700031FE2C20FFF72EFE0023FB6003E000BFA6
:101D8000FB680133FB60FB6842F20F729342F6D9A5
:101D9000FB791846FFF7E6FE00BF1837BD4680BD49
:101DA0003F420F009F86010080B582B000AF03461E
:101DB0000A46FB801346BB802A20FFF70BFEFB88F8
:101DC0001B0A9BB2DBB21846FFF7F4FDFB88DBB2BF
:101DD0001846FFF7EFFDBB881B0A9BB2DBB2184623
:101DE000FFF7E8FDBB88DBB21846FFF7E3FD00BF55
:101DF0000837BD4680BD80B582B000AF03460A46B5
:101E0000FB801346BB802B20FFF7E4FDFB881B0AF9
:101E10009BB2DBB21846FFF7CDFDFB88DBB218465C
:101E2000FFF7C8FDBB881B0A9BB2DBB21846FFF761
:101E3000C1FDBB88DBB21846FFF7BCFD00BF083709
:101E4000BD4680BD90B583B000AF0446084611463C
:101E50001A462346FB800346BB800B467B80134615
:101E60003B807A88FB8811461846FFF79DFF3A8829
:101E7000BB8811461846FFF7BEFF2C20FFF7AAFDCE
:101E800000BF0C37BD4690BD80B584B000AF03469F
:101E9000FB80154B1A88154B1B8800210020FFF78B
:101EA000D1FF0023FB600EE0FB881B0A9BB2DBB274
:101EB0001846FFF77FFDFB88DBB21846FFF77AFD77
:101EC000FB680133FB60084B1B881A46074B1B88D5
:101ED00003FB02F31A46FB689342E5D300BF00BF41
:101EE0001037BD4680BD00BF060000200400002062
:101EF00080B582B000AF0346FB800B46BB80134623
:101F00007B80BB88FA88B988F888FFF79BFF7B88BD
:101F10001B0A9BB2DBB21846FFF74CFD7B88DBB295
:101F20001846FFF747FD00BF0837BD4680BD0000DB
:101F300080B582B000AF114B1A88114B1B8800216D
:101F40000020FFF77FFF00237B6005E00020FFF704
:101F500031FD7B6801337B60084B1B881A46084BB8
:101F60001B8803FB02F35B001A467B689342EDD3A8
:101F700000BF00BF0837BD4680BD00BF060000207F
:101F80000400002090B585B000AF04460846114615
:101F90001A462346FB800346BB800B467B801346D4
:101FA0003B800023FB600CE0FB689AB2BB881344C3
:101FB00099B23A88FB881846FFF79AFFFB6801330D
:101FC000FB607B88FA689A42EEDB00BF00BF1437E3
:101FD000BD4690BD90B585B000AF04460846114699
:101FE0001A462346FB800346BB800B467B80134684
:101FF0003B800023FB600CE0FB689AB2FB88134433
:102000009BB23A88B9881846FFF772FFFB68013324
:10201000FB607B88FA689A42EEDB00BF00BF143792
:10202000BD4690BD90B585B000AF04460846114648
:102030001A462346FB800346BB800B467B80134633
:102040003B807A88FB88D31AFB813A88BB88D31AF5
:10205000BB813B8CBA89B988F888FFF793FF3B8C2A
:10206000FA89B988F888FFF7B5FFFA88FB89134425
:1020700098B23B8CBA89B988FFF784FFBA88BB89CC
:10208000134499B23B8CFA89F888FFF7A3FF00BF8D
:102090001437BD4690BD90B587B000AF04460846E2
:1020A00011461A462346FB800346BB800B467B80C5
:1020B00013463B80B7F90220B7F90630D31A07EE72
:1020C000903AB8EEE77BB0EEC77BFCEEC77B17EE2D
:1020D000903ABB82B7F90020B7F90430D31A07EE63
:1020E000903AB8EEE77BB0EEC77BFCEEC77B17EE0D
:1020F000903A7B82B7F90620B7F902309A4201DAAA
:10210000012301E04FF6FF733B82B7F90420B7F9D2
:1021100000309A4201DA012301E04FF6FF73FB81A0
:10212000BA8A7B8AD31AFB827B8839883A8D184613
:10213000FFF7DEFE26E0FB88B9883A8D1846FFF7E8
:10214000D7FEFB8A5B009BB2BB81B7F90C207B8A70
:102150005B429A4208DDFA8A7B8AD31AFB82FA88AC
:102160003B8A13449BB2FB80B7F90C20BB8A9A428E
:1021700008DAFA8ABB8A1344FB82BA88FB891344C3
:102180009BB2BB80B7F90620B7F902309A42D2D190
:10219000B7F90420B7F900309A42CCD100BF00BF94
:1021A0001C37BD4690BD90B585B000AF04460846CB
:1021B00011461A462346FB800346BB800B467B80B4
:1021C00013463B80BB88FB810BE03B8C3A88F98946
:1021D000F888FFF7D7FEFA893B8813449BB20A338D
:1021E000FB81FA897B889A42EFD300BF00BF143786
:1021F000BD4690BD90B587B000AF04460846114675
:102200001A462346FB800346BB800B46FB701346F1
:10221000BB70BA78FB7811461846FFF7FBFA3861B5
:102220003869FFF70DFB0346FB733869FFF714FBB2
:102230000346BB733B6902333B61FB78002B43D100
:102240000023FB753BE00023BB7531E0FB7D3A6961
:1022500013441B781A46BB7DC3F1070342FA03F30C
:1022600003F00103002B0ED0BB7D9AB2FB88134410
:1022700098B2FB7D9AB2BB8813449BB23A8D194643
:10228000FFF736FE11E097F83030002B0DD1BB7D03
:102290009AB2FB88134498B2FB7D9AB2BB88134470
:1022A0009BB2BA8D1946FFF723FEBB7D0133BB7588
:1022B000BA7DFB7B9A42C9D3FB7D0133FB75FA7D66
:1022C000BB7B9A42BFD379E000237B7572E0002389
:1022D0003B7568E03B7D072B31D87B7D5B001A4660
:1022E0003B6913441B781A463B7DC3F1070342FA4E
:1022F00003F303F00103002B0ED03B7D9AB2FB8861
:10230000134498B27B7D9AB2BB8813449BB23A8D3A
:102310001946FFF7EDFD43E097F83030002B3FD131
:102320003B7D9AB2FB88134498B27B7D9AB2BB88FE
:1023300013449BB2BA8D1946FFF7DAFD30E07B7D7E
:102340005B0001333A6913441B781A463B7DC3F1A5
:102350000F0342FA03F303F00103002B0ED03B7D81
:102360009AB2FB88134498B27B7D9AB2BB8813441F
:102370009BB23A8D1946FFF7BBFD11E097F830305C
:10238000002B0DD13B7D9AB2FB88134498B27B7D24
:102390009AB2BB8813449BB2BA8D1946FFF7A8FDC9
:1023A0003B7D01333B753A7DFB7B9A4292D37B7D2B
:1023B00001337B757A7DBB7B9A4288D3FB7B1846C1
:1023C0001C37BD4690BD90B58DB004AF7B60034611
:1023D000FB810B46BB811346FB727B681A78FB7A44
:1023E00011461846FFF716FAB8610023FB77FB8900
:1023F000FB82B869FFF730FA03467B7557E07B68CC
:102400001B780D2B14D00D2B15DC002B02D00A2BC2
:1024100003D010E00123FB7746E0B869FFF71CFA10
:1024200003467B757B7D9AB2BB891344BB813BE03D
:10243000FB8AFB8138E097F83830002B13D07B689B
:102440001C78FA7AB989F889012302930023019351
:102450003B8E00932346FFF7CDFE03469AB2FB89DD
:102460001344FB8112E07B681C78FA7AB989F889F9
:1024700000230293BB8E01933B8E00932346FFF70C
:10248000B9FE03469AB2FB891344FB817B681A7834
:10249000FB7A11461846FFF7BDF903461846FFF7C9
:1024A000DBF903467B7500BF7B6801337B60FB7FF4
:1024B000002BA4D0FB8918462437BD4690BD0000F0
:1024C00090B589B004AF0446084611461A46234623
:1024D000FB800346BB800B46FB7013463B803B886A
:1024E000092B78D93B88632B75D838883A889C4B60
:1024F000A3FB0213D9080B469B000B445B00D31AC5
:102500009BB2C31A974A82FB03129210DB17D31AAD
:10251000FB733A88924BA3FB0213D9080B469B002E
:102520000B445B00D31A9BB2BB7397F82830002B87
:1025300028D0FB7B3033DCB2FA78B988F8880123E5
:102540000293002301933B8C00932346FFF752FE36
:1025500003469AB2FB881344FB80BB7B3033DCB26A
:10256000FA78B988F88801230293002301933B8C01
:1025700000932346FFF73EFE03469AB2FB881344BE
:10258000FB8041E2FB7B3033DCB2FA78B988F88813
:1025900000230293BB8C01933B8C00932346FFF7EF
:1025A00029FE03469AB2FB881344FB80BB7B303381
:1025B000DCB2FA78B988F88800230293BB8C0193C7
:1025C0003B8C00932346FFF715FE03469AB2FB8827
:1025D0001344FB8018E23B88632B40F2C7803B88A2
:1025E000B3F57A7F80F0C2803A883B885E49A1FBD0
:1025F00003014909642000FB01F15B1A9BB2D31A65
:10260000594A82FB03125211DB17D31A7B733B88A2
:10261000554AA2FB03125209642101FB02F29B1AE4
:102620009BB218463A884E4BA3FB0213D9080B46BF
:102630009B000B445B00D31A9BB2C31A494A82FB2E
:1026400003129210DB17D31AFB733A88444BA3FB97
:102650000213D9080B469B000B445B00D31A9BB2B4
:10266000BB7397F82830002B3CD07B7B3033DCB237
:10267000FA78B988F88801230293002301933B8CF0
:1026800000932346FFF7B6FD03469AB2FB88134436
:10269000FB80FB7B3033DCB2FA78B988F888012301
:1026A0000293002301933B8C00932346FFF7A2FD86
:1026B00003469AB2FB881344FB80BB7B3033DCB209
:1026C000FA78B988F88801230293002301933B8CA0
:1026D00000932346FFF78EFD03469AB2FB8813440E
:1026E000FB8091E17B7B3033DCB2FA78B988F888E3
:1026F00000230293BB8C01933B8C00932346FFF78E
:1027000079FD03469AB2FB881344FB80FB7B303390
:10271000DCB2FA78B988F88800230293BB8C019365
:102720003B8C00932346FFF765FD03469AB2FB8876
:102730001344FB80BB7B3033DCB2FA78B988F8886D
:1027400000230293BB8C01933B8C00932346FFF73D
:1027500051FD03469AB2FB881344FB8054E100BF4D
:10276000CDCCCCCC676666661F85EB513B88B3F554
:102770007A7FC0F008813B8842F20F72934200F2E8
:1027800002813A883B88A349A1FB030189094FF4E0
:102790007A7000FB01F15B1A9BB2D31A9D4A82FB4F
:1027A00003129211DB17D31A3B733B88994AA2FBA1
:1027B000031292094FF47A7101FB02F29B1A9BB249
:1027C00018463B88944AA2FB03125209642101FB7C
:1027D00002F29B1A9BB2C31A8F4A82FB0312521158
:1027E000DB17D31A7B733B888B4AA2FB0312520977
:1027F000642101FB02F29B1A9BB218463A88874B70
:10280000A3FB0213D9080B469B000B445B00D31AB1
:102810009BB2C31A824A82FB03129210DB17D31AAF
:10282000FB733A887D4BA3FB0213D9080B469B0030
:102830000B445B00D31A9BB2BB7397F82830002B74
:1028400050D03B7B3033DCB2FA78B988F88801236A
:102850000293002301933B8C00932346FFF7CAFCAD
:1028600003469AB2FB881344FB807B7B3033DCB297
:10287000FA78B988F88801230293002301933B8CEE
:1028800000932346FFF7B6FC03469AB2FB88134435
:10289000FB80FB7B3033DCB2FA78B988F8880123FF
:1028A0000293002301933B8C00932346FFF7A2FC85
:1028B00003469AB2FB881344FB80BB7B3033DCB207
:1028C000FA78B988F88801230293002301933B8C9E
:1028D00000932346FFF78EFC03469AB2FB8813440D
:1028E000FB8091E03B7B3033DCB2FA78B988F88822
:1028F00000230293BB8C01933B8C00932346FFF78C
:1029000079FC03469AB2FB881344FB807B7B30330F
:10291000DCB2FA78B988F88800230293BB8C019363
:102920003B8C00932346FFF765FC03469AB2FB8875
:102930001344FB80FB7B3033DCB2FA78B988F8882B
:1029400000230293BB8C01933B8C00932346FFF73B
:1029500051FC03469AB2FB881344FB80BB7B3033A7
:10296000DCB2FA78B988F88800230293BB8C019313
:102970003B8C00932346FFF73DFC03469AB2FB884D
:102980001344FB8040E03B8842F20F7293420CD923
:10299000FA78B988F88801230293BB8C01933B8CA9
:1029A0000093204BFFF70FFD2EE097F82830002B07
:1029B00015D03B88DBB23033DCB2FA78B988F888BE
:1029C00001230293002301933B8C00932346FFF7DE
:1029D00011FC03469AB2FB881344FB8014E03B8849
:1029E000DBB23033DCB2FA78B988F888002302937E
:1029F000BB8C01933B8C00932346FFF7FBFB034604
:102A00009AB2FB881344FB80002318461437BD4656
:102A100090BD00BFD34D62101F85EB51CDCCCCCC07
:102A20006766666638E4000880B584B002AFA84BDC
:102A30007B60A84B3B60A84B1B881846FFF724FA25
:102A40003B681A683B68043319683B6808331B68A5
:102A500000930B46A1490020FEF70EFFA04B072272
:102A6000A0490120FEF708FF7B681B889BB21A462D
:102A70009D490120FEF700FF9C490020FEF7FCFE67
:102A80009B4B5B69002B03D09A490020FEF7F4FEB4
:102A9000974B5B69002B03D097490020FEF7ECFEB3
:102AA000964B1B69002B06D0944BDB681A46944961
:102AB0000020FEF7E1FE934B1B68002B03D09249E8
:102AC0000020FEF7D9FE914B1B68002B03D09049E4
:102AD0000020FEF7D1FE8F4B1B68002B03D08E49E0
:102AE0000020FEF7C9FE8D4B1B68002B03D08C49DC
:102AF0000020FEF7C1FE8B4BDB698B4A93420BD95A
:102B0000884BDB69894AA2FB03239B0C1A46884940
:102B10000220FEF7B1FE0AE0824BDB69834AA2FB8A
:102B200003239B0C1A4683490020FEF7A5FE7D4B2C
:102B3000DB687E4AA2FB03239B0C1A467E490020D9
:102B4000FEF79AFE774B1B69784AA2FB03239B0C86
:102B50001A467A490020FEF78FFE724B5B69734A72
:102B6000A2FB03239B0C1A4675490020FEF784FE46
:102B70006C4B9B696D4AA2FB03239B0C1A4671495F
:102B80000020FEF779FE704B1B68002B03D06F49C5
:102B90000020FEF771FE6E4B9B68002B03D06D4941
:102BA0000020FEF769FE6C4B9B68002B03D06B493D
:102BB0000020FEF761FE6A4B1B68002B03D06949B9
:102BC0000020FEF759FE684B1B68002B0BD0664BAC
:102BD000DB685B00654AB2FBF3F35B001A466449AD
:102BE0000020FEF749FE634B1B68002B0BD0614BA6
:102BF000DB685B005D4AB2FBF3F35B001A465E499B
:102C00000020FEF739FE5D4B1B68002B0BD05B4BA1
:102C1000DB685B00554AB2FBF3F35B001A46584988
:102C20000020FEF729FE574B1B68002B0BD0554B9D
:102C3000DB685B004D4AB2FBF3F35B001A46524976
:102C40000020FEF719FE514B1B68002B0BD04F4B99
:102C5000DB685B00454AB2FBF3F35B001A464C4964
:102C60000020FEF709FE4B4B1B68002B0BD0494B95
:102C7000DB685B003D4AB2FBF3F35B001A46464952
:102C80000020FEF7F9FD454B1B68002B0BD0434B92
:102C9000DB685B00354AB2FBF3F35B001A46404940
:102CA0000020FEF7E9FD3F4B1B68002B0BD03D4B8E
:102CB000DB685B002D4AB2FBF3F35B001A463A492E
:102CC0000020FEF7D9FD00BF0837BD4680BD00BF1C
:102CD00042F4F01F20F4F01F6CC7022094E40008B7
:102CE00001000500B4E40008DCE40008F4E4000896
:102CF00000ED00E018E5000830E5000890ED00E088
:102D000048E500080070004070E50008002C004015
:102D100088E50008003C024094E5000800080650E1
:102D2000A8E50008C8C7022000E6DF0C83DE1B43CD
:102D3000B8E50008CCE50008DCE50008F4E500088B
:102D40000CE6000824E60008001000A03CE600089D
:102D50000020014050E600080021014060E6000824
:102D60000000055070E60008001001400024F40047
:102D700080E6000800440040A0E60008004800404B
:102D8000C0E60008004C0040E0E6000800500040AB
:102D900000E700080014014020E700080078004028
:102DA00040E70008007C004060E7000880B500AF05
:102DB000032000F06FFD002000F006F8FEF70EFA89
:102DC0000023184680BD000080B582B000AF786057
:102DD000124B1A68124B1B7819464FF47A73B3FBE7
:102DE000F1F3B2FBF3F3184600F089FD0346002B24
:102DF00001D001230EE07B680F2B0AD800227968EE
:102E00004FF0FF3000F051FD064A7B68136000234D
:102E100000E0012318460837BD4680BD00000020B1
:102E20000C0000200800002080B400AF064B1B7887
:102E30001A46064B1B681344044A136000BFBD4684
:102E40005DF8047B704700BF0C00002064C80220BE
:102E500080B400AF034B1B681846BD465DF8047B89
:102E6000704700BF64C8022080B584B000AF7860AE
:102E7000FFF7EEFFB8607B68FB60FB68B3F1FF3FD4
:102E800005D00A4B1B781A46FB681344FB6000BF51
:102E9000FFF7DEFF0246BB68D31AFA689A42F7D8FA
:102EA00000BF00BF1037BD4680BD00BF0C00002032
:102EB00080B584B000AF78600023FB737B68002B83
:102EC00001D1012331E07B681B6C002B09D17868AC
:102ED000FEF7A8F97B6800225A647B68002283F819
:102EE0003C207B681B6C03F01003002B16D17B6821
:102EF0001A6C104B134043F002027B681A64786826
:102F000000F07CFA7B6800225A647B681B6C23F01B
:102F1000030343F001027B681A6401E00123FB73A1
:102F20007B68002283F83C20FB7B18461037BD46A7
:102F300080BD00BFFDEEFFFF80B586B000AFF8603A
:102F4000B9607A6000237B61FB6893F83C30012B09
:102F500001D10223D4E0FB68012283F83C20FB6806
:102F60001B689B6803F00103012B18D0FB681B68EA
:102F70009A68FB681B6842F001029A60624B1B680A
:102F8000624AA2FB03239A0C13465B0013447B6145
:102F900002E07B69013B7B617B69002BF9D1FB6817
:102FA0001B689B6803F00103012B40F09C80FB68C9
:102FB0001A6C574B134043F48072FB681A64FB6829
:102FC0001B685B6803F48063002B07D0FB681B6CF5
:102FD00023F4405343F48052FB681A64FB681B6C73
:102FE00003F48053B3F5805F06D1FB685B6C23F07C
:102FF0000602FB685A6402E0FB6800225A64FB6820
:10300000002283F83C20FB689B6B424ADA63FB6832
:103010009B6B414A1A64FB689B6B404ADA64FB680D
:103020001B686FF022021A60FB681B685A68FB6815
:103030001B6842F080625A60FB681B689A68FB68F4
:103040001B6842F480729A60FB68986BFB681B688F
:103050004C331946BA687B6800F00CFD304B5B6856
:1030600003F01F03002B0FD1FB681B689B6803F064
:103070004053002B43D1FB681B689A68FB681B68B0
:1030800042F080429A603AE0FB681B68254A93420E
:103090000ED1FB681B689B6803F04053002B07D1DF
:1030A000FB681B689A68FB681B6842F080429A6064
:1030B0001B4B5B6803F01003002B20D1FB681B68DF
:1030C000194A93421BD1FB681B689B6803F040536D
:1030D000002B14D1FB681B689A68FB681B6842F0E0
:1030E00080429A600BE0FB681B6C43F01002FB68A7
:1030F0001A64FB685B6C43F00102FB685A640023AE
:1031000018461837BD4680BD0000002083DE1B43F3
:10311000FEF8FFFFF1350008AB360008C73600089F
:1031200000230140002001400022014080B483B010
:1031300000AF786000BF0C37BD465DF8047B704778
:1031400080B483B000AF786000BF0C37BD465DF837
:10315000047B704780B483B000AF786000BF0C3749
:10316000BD465DF8047B704780B485B000AF7860E1
:1031700039600023FB607B6893F83C30012B01D160
:1031800002232AE17B68012283F83C203B681B680C
:10319000092B3AD93B681B68B3F1004F35D07B68E7
:1031A0001B68D9683B681B689BB21A4613465B00D4
:1031B00013441E3B072202FA03F3DA437B681B68C1
:1031C0000A40DA603B681B68874A93420AD17B68F1
:1031D0001B68D9683B689B681A067B681B680A43B2
:1031E000DA6035E07B681B68D9683B689A683B68A1
:1031F0001B689BB2184603465B0003441E3B9A4083
:103200007B681B680A43DA6022E07B681B681969E7
:103210003B681B689BB21A4613465B0013440722A7
:1032200002FA03F3DA437B681B680A401A617B6881
:103230001B6819693B689A683B681B689BB2184613
:1032400003465B0003449A407B681B680A431A618B
:103250003B685B68062B24D87B681B68596B3B680E
:103260005A6813469B001344053B1F2202FA03F3DE
:10327000DA437B681B680A405A637B681B68596B9A
:103280003B681B689BB218463B685A6813469B0014
:103290001344053B00FA03F27B681B680A435A6338
:1032A0004CE03B685B680C2B24D87B681B68196B6F
:1032B0003B685A6813469B001344233B1F2202FAC3
:1032C00003F3DA437B681B680A401A637B681B6858
:1032D000196B3B681B689BB218463B685A681346DB
:1032E0009B001344233B00FA03F27B681B680A43EC
:1032F0001A6323E07B681B68D96A3B685A681346E7
:103300009B001344413B1F2202FA03F3DA437B681C
:103310001B680A40DA627B681B68D96A3B681B68D5
:103320009BB218463B685A6813469B001344413BC6
:1033300000FA03F27B681B680A43DA627B681B6849
:103340002A4A93420AD13B681B68B3F1004F05D16A
:10335000274B5B68264A23F4400353607B681B6855
:10336000224A934209D13B681B68122B05D1204B9E
:103370005B681F4A43F4800353607B681B681B4AE9
:10338000934225D13B681B68174A934203D03B68A0
:103390001B68112B1CD1164B5B68154A43F40003C4
:1033A00053603B681B68104A934211D1114B1B6854
:1033B000114AA2FB03239A0C13469B0013445B00A3
:1033C000FB6002E0FB68013BFB60FB68002BF9D16E
:1033D0007B68002283F83C20002318461437BD4642
:1033E0005DF8047B704700BF120000100020014010
:1033F000002301400000002083DE1B4380B483B023
:1034000000AF7860784B5B68774A23F440335360B1
:10341000754B5A687B685B68734913434B607B68E4
:103420001B685A687B681B6822F480725A607B684C
:103430001B6859687B681B691A027B681B680A4312
:103440005A607B681B685A687B681B6822F0407270
:103450005A607B681B6859687B689A687B681B6840
:103460000A435A607B681B689A687B681B6822F471
:1034700000629A607B681B6899687B68DA687B6881
:103480001B680A439A607B689B6A584A934222D021
:103490007B681B689A687B681B6822F070629A6080
:1034A0007B681B6899687B689A6A7B681B680A431B
:1034B0009A607B681B689A687B681B6822F04052A0
:1034C0009A607B681B6899687B68DA6A7B681B680E
:1034D0000A439A600FE07B681B689A687B681B68E8
:1034E00022F070629A607B681B689A687B681B6830
:1034F00022F040529A607B681B689A687B681B6860
:1035000022F002029A607B681B6899687B689B695D
:103510005A007B681B680A439A607B6893F82030E6
:10352000002B1BD07B681B685A687B681B6842F4C1
:1035300000625A607B681B685A687B681B6822F4CB
:1035400060425A607B681B6859687B685B6A013B14
:103550005A037B681B680A435A6007E07B681B6854
:103560005A687B681B6822F400625A607B681B689B
:10357000DA6A7B681B6822F47002DA627B681B6877
:10358000D96A7B68DB69013B1A057B681B680A43C3
:10359000DA627B681B689A687B681B6822F4007299
:1035A0009A607B681B6899687B6893F830305A0290
:1035B0007B681B680A439A607B681B689A687B6813
:1035C0001B6822F480629A607B681B6899687B683C
:1035D0005B699A027B681B680A439A6000BF0C37DC
:1035E000BD465DF8047B7047002301400100000FD9
:1035F00080B584B000AF78607B689B6BFB60FB6834
:103600001B6C03F05003002B3CD1FB681B6C43F494
:103610000072FB681A64FB681B689B6803F04053E8
:10362000002B2BD1FB689B69002B27D1FB681B6803
:10363000DB6A03F47003002B06D0FB681B689B68F1
:1036400003F48063002B19D1FB681B685A68FB6880
:103650001B6822F020025A60FB681B6C23F4807206
:10366000FB681A64FB681B6C03F48053002B05D1C4
:10367000FB681B6C43F00102FB681A64F868FFF7F3
:1036800055FD0EE0FB681B6C03F01003002B03D00C
:10369000F868FFF75FFD04E0FB689B6BDB6C786804
:1036A000984700BF1037BD4680BD80B584B000AFDD
:1036B00078607B689B6BFB60F868FFF741FD00BF9B
:1036C0001037BD4680BD80B584B000AF78607B68A0
:1036D0009B6BFB60FB6840221A64FB685B6C43F0E9
:1036E0000402FB685A64F868FFF734FD00BF103726
:1036F000BD4680BD80B485B000AF78607B6803F0C4
:103700000703FB600B4BDB68BB60BA684FF6FF0337
:103710001340BB60FB681A02BB681A43064B134395
:10372000BB60044ABB68D36000BF1437BD465DF878
:10373000047B704700ED00E00000FA0580B400AFA4
:10374000044BDB681B0A03F007031846BD465DF80F
:10375000047B704700ED00E080B483B000AF034607
:10376000FB7197F90730002B0BDBFB7903F01F028D
:10377000074997F907305B09012000FA02F241F886
:10378000232000BF0C37BD465DF8047B704700BFA7
:1037900000E100E080B483B000AF03463960FB7104
:1037A00097F90730002B0ADB3B68DAB20C4997F92E
:1037B00007301201D2B20B4483F800230AE03B68C1
:1037C000DAB20849FB7903F00F03043B1201D2B2CD
:1037D0000B441A7600BF0C37BD465DF8047B70477A
:1037E00000E100E000ED00E080B489B000AFF860D7
:1037F000B9607A60FB6803F00703FB61FB69C3F102
:103800000703042B28BF0423BB61FB690433062B89
:1038100002D9FB69033B00E000237B614FF0FF32DC
:10382000BB6902FA03F3DA43BB681A407B699A402A
:103830004FF0FF317B6901FA03F3D9437B680B40FA
:10384000134318462437BD465DF8047B70470000DB
:1038500080B582B000AF78607B68013BB3F1807FB8
:1038600001D301230FE00A4A7B68013B53600F211B
:103870004FF0FF30FFF78EFF054B00229A60044B9C
:1038800007221A60002318460837BD4680BD00BFD6
:1038900010E000E080B582B000AF78607868FFF794
:1038A00029FF00BF0837BD4680BD80B586B000AF98
:1038B0000346B9607A60FB7300237B61FFF73EFF2C
:1038C00078617A68B9687869FFF78EFF024697F9E0
:1038D0000F3011461846FFF75DFF00BF1837BD4691
:1038E00080BD80B582B000AF0346FB7197F9073009
:1038F0001846FFF731FF00BF0837BD4680BD80B5D1
:1039000082B000AF78607868FFF7A2FF03461846E0
:103910000837BD4680BD000080B586B000AF786036
:1039200000237B61FFF794FA38617B68002B01D19B
:10393000012399E07B68002283F834207B6802220F
:1039400083F835207B681B681A687B681B6822F047
:1039500001021A600FE0FFF77BFA02463B69D31AB7
:10396000052B08D97B6820225A657B68032283F8DF
:103970003520032378E07B681B681B6803F0010394
:10398000002BE8D17B681B681B687B617A69384B28
:1039900013407B617B685A687B689B681A437B682D
:1039A000DB681A437B681B691A437B685B691A43AF
:1039B0007B689B691A437B68DB691A437B681B6AD7
:1039C00013437A6913437B617B685B6A042B07D1DD
:1039D0007B68DA6A7B681B6B13437A6913437B61EC
:1039E0007B681B687A691A607B681B685B697B610E
:1039F0007B6923F007037B617B685B6A7A69134309
:103A00007B617B685B6A042B17D17B689B6A7A6950
:103A100013437B617B68DB6A002B0ED0786800F073
:103A200077FA0346002B08D07B6840225A657B68F2
:103A3000012283F83520012316E07B681B687A6930
:103A40005A61786800F02EFA0346FB607B68DB6DF4
:103A50003F229A40FB689A607B6800225A657B6827
:103A6000012283F83520002318461837BD4680BD53
:103A70003F8010E080B586B000AFF860B9607A6032
:103A80003B600023FB75FB689B6D3B61FB6893F813
:103A90003430012B01D1022348E0FB68012283F876
:103AA0003420FB6893F83530DBB2012B37D1FB684B
:103AB000022283F83520FB6800225A653B687A6849
:103AC000B968F86800F0C0F9FB68DB6D3F229A40E6
:103AD0003B699A60FB681B681A68FB681B6842F0C8
:103AE00016021A60FB681B685A69FB681B6842F083
:103AF00080025A61FB681B6C002B07D0FB681B68B7
:103B00001A68FB681B6842F008021A60FB681B68B1
:103B10001A68FB681B6842F001021A6005E0FB6846
:103B2000002283F834200223FB75FB7D18461837EA
:103B3000BD4680BD80B586B000AF78600023BB6015
:103B4000924B1B68924AA2FB03239B0A7B617B6812
:103B50009B6D3B613B691B68FB607B68DB6D0822EA
:103B60009A40FB681340002B1AD07B681B681B68C7
:103B700003F00403002B13D07B681B681A687B6872
:103B80001B6822F004021A607B68DB6D08229A40F1
:103B90003B699A607B685B6D43F001027B685A6504
:103BA0007B68DB6D01229A40FB681340002B12D02A
:103BB0007B681B685B6903F08003002B0BD07B687C
:103BC000DB6D01229A403B699A607B685B6D43F034
:103BD00002027B685A657B68DB6D04229A40FB68B1
:103BE0001340002B12D07B681B681B6803F0020394
:103BF000002B0BD07B68DB6D04229A403B699A60F6
:103C00007B685B6D43F004027B685A657B68DB6D03
:103C100010229A40FB681340002B43D07B681B683E
:103C20001B6803F00803002B3CD07B68DB6D10227F
:103C30009A403B699A607B681B681B6803F4802389
:103C4000002B18D07B681B681B6803F40023002B33
:103C500008D17B681B6C002B24D07B681B6C7868B8
:103C600098471FE07B689B6C002B1BD07B689B6C8C
:103C70007868984716E07B681B681B6803F48073BC
:103C8000002B07D17B681B681A687B681B6822F0D1
:103C900008021A607B681B6C002B03D07B681B6CCE
:103CA000786898477B68DB6D20229A40FB68134058
:103CB000002B00F08E807B681B681B6803F01003EC
:103CC000002B00F086807B68DB6D20229A403B69E8
:103CD0009A607B6893F83530DBB2052B36D17B6870
:103CE0001B681A687B681B6822F016021A607B68E2
:103CF0001B685A697B681B6822F080025A617B68E6
:103D00001B6C002B03D17B689B6C002B07D07B685E
:103D10001B681A687B681B6822F008021A607B68BF
:103D2000DB6D3F229A403B699A607B68002283F8F2
:103D300034207B68012283F835207B681B6D002BC3
:103D40007DD07B681B6D7868984778E07B681B683E
:103D50001B6803F48023002B1CD07B681B681B6846
:103D600003F40023002B08D17B685B6C002B30D060
:103D70007B685B6C786898472BE07B68DB6B002B7B
:103D800027D07B68DB6B7868984722E00000002032
:103D9000B5814E1B7B681B681B6803F48073002B86
:103DA0000FD17B681B681A687B681B6822F01002C1
:103DB0001A607B68002283F834207B68012283F834
:103DC00035207B68DB6B002B03D07B68DB6B78686E
:103DD00098477B685B6D002B32D07B685B6D03F08E
:103DE0000103002B22D07B68052283F835207B68F5
:103DF0001B681A687B681B6822F001021A60BB68A6
:103E00000133BB607A699A4207D37B681B681B68E1
:103E100003F00103002BF2D100E000BF7B68002219
:103E200083F834207B68012283F835207B68DB6CC3
:103E3000002B05D07B68DB6C7868984700E000BFFA
:103E40001837BD4680BD00BF80B485B000AFF860B4
:103E5000B9607A603B60FB681B681A68FB681B6886
:103E600022F480221A60FB681B683A685A60FB687B
:103E70009B68402B08D1FB681B687A689A60FB68D6
:103E80001B68BA68DA6007E0FB681B68BA689A606A
:103E9000FB681B687A68DA6000BF1437BD465DF8BE
:103EA000047B704780B485B000AF78607B681B6886
:103EB000DBB2103B134AA2FB03231B09FB60124A2F
:103EC000FB6813441B781A467B68DA65FB68032B92
:103ED00008D97B681B681A460C4B13401A1D7B6877
:103EE0009A6506E07B681B681A46084B13407A689F
:103EF00093657B689B6D18461437BD465DF8047B5F
:103F0000704700BFABAAAAAA2818010800FCFFFF4F
:103F100080B485B000AF78600023FB737B689B6A38
:103F2000BB607B689B69002B1FD1BB68032B56D8F5
:103F300001A252F823F000BF493F00085B3F000890
:103F4000493F0008DF3F00087B68DB6A03F08073AD
:103F5000002B46D00123FB7343E07B68DB6AB3F19F
:103F6000C07F40D10123FB733DE07B689B69B3F5C3
:103F7000005F21D1BB68032B37D801A252F823F090
:103F8000913F0008973F0008913F0008A93F0008B3
:103F90000123FB7330E07B68DB6A03F08073002B46
:103FA00025D00123FB7322E07B68DB6AB3F1C07F7D
:103FB0001FD10123FB731CE0BB68022B03D9BB6834
:103FC000032B03D018E00123FB7315E07B68DB6A49
:103FD00003F08073002B0ED00123FB730BE000BFB6
:103FE0000AE000BF08E000BF06E000BF04E000BF39
:103FF00002E000BF00E000BFFB7B18461437BD465F
:104000005DF8047B704700BF80B489B000AF786072
:1040100039600023FB6100237B6100233B610023A7
:10402000BB610023FB6175E10122FB6902FA03F326
:104030007B613B681B687A6913403B613A697B6925
:104040009A4240F064813B685B68012B0BD03B686F
:104050005B68022B07D03B685B68112B03D03B6881
:104060005B68122B30D17B689B68BB61FB695B008E
:10407000032202FA03F3DB43BA691340BB613B68D6
:10408000DA68FB695B0002FA03F3BA691343BB61A8
:104090007B68BA699A607B685B68BB610122FB69D7
:1040A00002FA03F3DB43BA691340BB613B685B6808
:1040B0001B0903F00102FB6902FA03F3BA69134317
:1040C000BB617B68BA695A607B68DB68BB61FB696E
:1040D0005B00032202FA03F3DB43BA691340BB61BE
:1040E0003B689A68FB695B0002FA03F3BA69134301
:1040F000BB617B68BA69DA603B685B68022B03D0FE
:104100003B685B68122B23D1FB69DA087B680832B5
:1041100053F82230BB61FB6903F007039B000F22B9
:1041200002FA03F3DB43BA691340BB613B681A69C7
:10413000FB6903F007039B0002FA03F3BA69134318
:10414000BB61FB69DA087B680832B96943F8221061
:104150007B681B68BB61FB695B00032202FA03F307
:10416000DB43BA691340BB613B685B6803F0030241
:10417000FB695B0002FA03F3BA691343BB617B6816
:10418000BA691A603B685B6803F08053002B00F04B
:10419000BE80664B5B6C654A43F480435364634B5B
:1041A0005B6C03F48043FB60FB68614AFB699B081E
:1041B000023352F82330BB61FB6903F003039B0019
:1041C0000F2202FA03F3DB43BA691340BB617B6839
:1041D000584A934237D07B68574A934231D07B6824
:1041E000564A93422BD07B68554A934225D07B6830
:1041F000544A93421FD07B68534A934219D07B683C
:10420000524A934213D07B68514A93420DD07B6847
:10421000504A934207D07B684F4A934201D1092309
:1042200012E00A2310E008230EE007230CE0062327
:104230000AE0052308E0042306E0032304E0022348
:1042400002E0012300E00023FA6902F00302920079
:104250009340BA691343BB613549FB699B0802333C
:10426000BA6941F823203D4B1B68BB613B69DB43C6
:10427000BA691340BB613B685B6803F48033002B71
:1042800003D0BA693B691343BB61344ABB6913600D
:10429000324B5B68BB613B69DB43BA691340BB616E
:1042A0003B685B6803F40033002B03D0BA693B69B9
:1042B0001343BB61294ABB695360284B9B68BB61B0
:1042C0003B69DB43BA691340BB613B685B6803F43D
:1042D0008013002B03D0BA693B691343BB611F4AAB
:1042E000BB6993601D4BDB68BB613B69DB43BA690B
:1042F0001340BB613B685B6803F40013002B03D0E1
:10430000BA693B691343BB61144ABB69D360FB695B
:104310000133FB61FB690F2B7FF686AE00BF00BF48
:104320002437BD465DF8047B704700BF003802406B
:104330000038014000000240000402400008024032
:10434000000C02400010024000140240001802401D
:10435000001C02400020024000240240003C0140BA
:1043600090B58DB000AF78607B681B683B623B6A9C
:10437000FB617B681B68184602F065FF0346002B53
:1043800040F0CA837B681B68184602F0C9FE0346EA
:10439000002B00F0C0837B681B68184602F0C0FE4B
:1043A000034603F00203022B07D17B681B685A699E
:1043B0007B681B6802F002025A617B681B68184622
:1043C00002F0AEFE034603F01003102B61D17B68B0
:1043D0001B689A697B681B6822F010029A613B6A2D
:1043E0001B6ABB61BB6903F00F021346DB009B1A1B
:1043F0009B0003F5FC737A68134404337B61BB694B
:104400005B0C03F00F03022B24D1BA6947F6F0735B
:104410001340002B35D07B69D968BB691B099BB25F
:10442000C3F30A039BB21A46386A02F056FD7B6951
:10443000DA68BB691B09C3F30A031A447B69DA60B3
:104440007B699A69BB691B09C3F30A031A447B6938
:104450009A6116E0BB695B0C03F00F03062B10D1C9
:104460007B6803F5717308221946386A02F035FD3E
:104470007B699A69BB691B09C3F30A031A447B6908
:104480009A617B681B689A697B681B6842F010021E
:104490009A617B681B68184602F042FE034603F4EB
:1044A0000023B3F5002F6ED100237B627B681B686D
:1044B000184602F048FEB86262E0BB6A03F00103EE
:1044C000002B57D07B681B687A6AD2B21146184617
:1044D00002F06DFE38613B6903F00103002B0CD044
:1044E0007B6A5A01FB69134403F530631A460123C2
:1044F0009360796A786800F07BFD3B6903F00803FC
:10450000002B0CD07B6A5A01FB69134403F530631E
:104510001A4608239360796A786800F075FE3B6953
:1045200003F01003002B08D07B6A5A01FB69134487
:1045300003F530631A46102393603B6903F02003B0
:10454000002B08D07B6A5A01FB69134403F53063E2
:104550001A46202393603B6903F40053002B09D0D3
:104560007B6A5A01FB69134403F530631A464FF422
:10457000005393607B6A01337B62BB6A5B08BB625A
:10458000BB6A002B99D17B681B68184602F0C8FDF6
:10459000034603F48023B3F5802F40F0C0807B688E
:1045A0001B68184602F0E9FDB86200237B62B2E0A6
:1045B000BB6A03F00103002B00F0A7807B681B6837
:1045C0007A6AD2B21146184602F00FFE38613B6992
:1045D00003F00103002B57D07B6A03F00F03012285
:1045E00002FA03F3FB60FB6903F500635A6BFB6897
:1045F000DB43F96901F5006113404B637B6A5A01A3
:10460000FB69134403F510631A46012393607B682A
:104610001B69012B32D179687A6A1346DB009B1A39
:104620009B000B444833196878687A6A1346DB00AC
:104630009B1A9B00034444331B68194478687A6AC8
:104640001346DB009B1A9B000344483319607B6AC6
:10465000002B13D179687A6A1346DB009B1A9B0002
:104660000B4450331B68002B08D17B6818687B68AB
:1046700003F571731A46012102F018FE7B6ADBB262
:104680001946786803F06BFF3B6903F00803002BC1
:1046900008D07B6A5A01FB69134403F510631A467C
:1046A000082393603B6903F01003002B08D07B6A5A
:1046B0005A01FB69134403F510631A4610239360F3
:1046C0003B6903F04003002B08D07B6A5A01FB6969
:1046D000134403F510631A46402393603B6903F0CB
:1046E0000203002B08D07B6A5A01FB69134403F5CF
:1046F00010631A46022393603B6903F08003002B8A
:1047000003D0796A786800F0E6FB7B6A01337B624C
:10471000BB6A5B08BB62BB6A002B7FF449AF7B6856
:104720001B68184602F0FCFC034603F00043B3F19B
:10473000004F22D1FB6903F500635B68FA6902F55B
:10474000006223F0010353607B6893F8F433012B7C
:1047500008D17B68002283F8F4230021786804F0F4
:10476000B5F802E0786803F071FF7B681B685A694E
:104770007B681B6802F000425A617B681B68184620
:1047800002F0CEFC034603F40063B3F5006F12D1D0
:10479000FB6903F500639B6803F00103012B02D161
:1047A000786803F02DFF7B681B685A697B681B687B
:1047B00002F400625A617B681B68184602F0B0FC84
:1047C000034603F00063B3F1006F21D17B681B68DF
:1047D0005A697B681B6802F000625A617B6893F833
:1047E000F433002B11D17B68012283F8F4237B681A
:1047F0001B685B6D9B0803F00F027B68C3F8F8230E
:104800000121786804F062F802E0786803F0F8FEAD
:104810007B681B68184602F083FC034603F4805350
:10482000B3F5805F40F0C780FB6903F500635B6808
:10483000FA6902F5006223F0010353607B681B688C
:104840001021184601F09CFE0023FB6256E0FB6A33
:104850005A01FB69134403F510631A464FF67F3380
:104860009360FB6A5A01FB69134403F510631B68EC
:10487000FA6A5101FA690A4402F5106223F400133E
:104880001360FB6A5A01FB69134403F510631B684C
:10489000FA6A5101FA690A4402F5106243F00063B2
:1048A0001360FB6A5A01FB69134403F530631A462F
:1048B0004FF67F339360FB6A5A01FB69134403F59B
:1048C00030631B68FA6A5101FA690A4402F53062E2
:1048D00023F400131360FB6A5A01FB69134403F5C8
:1048E00030631B68FA6A5101FA690A4402F53062C2
:1048F00043F000631360FB6A0133FB627B685B6813
:10490000FA6A9A42A3D3FB6903F50063DB69FA698B
:1049100002F5006243F00113D3617B681B6B002B2F
:1049200016D0FB6903F50063D3F88430FA6902F509
:10493000006243F00B03C2F88430FB6903F50063A7
:104940005B6CFA6902F5006243F00B03536415E0F7
:10495000FB6903F500635A69FB6903F500631946B7
:1049600042F22B0313434B61FB6903F500631B69A0
:10497000FA6902F5006243F00B031361FB6903F56A
:1049800000631B68FA6902F5006223F4FE6313609A
:104990007B6818687B681B69D9B27B6803F5717303
:1049A0001A4602F083FC7B681B685A697B681B68A7
:1049B00002F480525A617B681B68184602F0B0FB13
:1049C000034603F40053B3F5005F24D17B681B68F2
:1049D000184602F047FC7B681B68184601F0F6FD9C
:1049E00003461A467B68DA607B681C6801F0F2F8BF
:1049F00001467B68DB68DBB21A46204601F01EFDEB
:104A0000786803F0D4FD7B681B685A697B681B6873
:104A100002F400525A617B681B68184602F080FB62
:104A2000034603F00803082B0AD1786803F0B1FDB0
:104A30007B681B685A697B681B6802F008025A6130
:104A40007B681B68184602F06BFB034603F4801377
:104A5000B3F5801F0FD100237B627B6ADBB219465E
:104A6000786803F013FE7B681B685A697B681B68D3
:104A700002F480125A617B681B68184602F050FBF2
:104A8000034603F40013B3F5001F0FD100237B622C
:104A90007B6ADBB21946786803F0E6FD7B681B6829
:104AA0005A697B681B6802F400125A617B681B68B4
:104AB000184602F035FB034603F08043B3F1804F04
:104AC0000AD1786803F0F4FD7B681B685A697B683B
:104AD0001B6802F080425A617B681B68184602F02E
:104AE0001FFB034603F00403042B15D17B681B68EE
:104AF0005B68BB61BB6903F00403002B02D07868DC
:104B000003F0E4FD7B681B6859687B681B68BA6921
:104B10000A435A6000E000BF3437BD4690BD80B5FF
:104B200082B000AF78600B46FB707B6893F8BC33B3
:104B3000012B01D1022313E07B68012283F8BC23FF
:104B40007B68FA7883F838207B681B68FA7811460E
:104B5000184602F0BFFA7B68002283F8BC230023CA
:104B600018460837BD4680BD80B584B000AF786078
:104B7000084611461A460346FB700B463B80134617
:104B8000BB700023FB7297F90330002B0FDAFB7820
:104B900003F00F021346DB009B1A9B0038337A6840
:104BA00013440433FB60FB6801225A700FE0FB786A
:104BB00003F00F021346DB009B1A9B0003F5FC7306
:104BC0007A6813440433FB60FB6800225A70FB7858
:104BD00003F00F03DAB2FB681A703A88FB689A6038
:104BE000FB68BA78DA70FB685B78002B04D0FB684E
:104BF0001B789AB2FB68DA80BB78022B02D1FB6883
:104C000000221A717B6893F8BC33012B01D1022377
:104C10000EE07B68012283F8BC237B681B68F9687F
:104C2000184601F0F9FC7B68002283F8BC23FB7A6C
:104C300018461037BD4680BD80B586B000AFF8601D
:104C40007A603B600B46FB72FB7A03F00F0213465F
:104C5000DB009B1A9B0003F5FC73FA6813440433D2
:104C60007B617B697A68DA607B693A685A617B6943
:104C700000229A617B6900225A70FB7A03F00F03CD
:104C8000DAB27B691A70FB681B69012B02D17A6862
:104C90007B691A61FB7A03F00F03002B09D1FB68D3
:104CA0001868FB681B69DBB21A46796901F088FF56
:104CB00008E0FB681868FB681B69DBB21A46796973
:104CC00001F032FD002318461837BD4680BD80B57F
:104CD00086B000AFF8607A603B600B46FB72FB7AEF
:104CE00003F00F021346DB009B1A9B003833FA686F
:104CF000134404337B617B697A68DA607B693A68C4
:104D00005A617B6900229A617B6901225A70FB7AA1
:104D100003F00F03DAB27B691A70FB681B69012B81
:104D200002D17A687B691A61FB7A03F00F03002BCA
:104D300009D1FB681868FB681B69DBB21A46796900
:104D400001F03EFF08E0FB681868FB681B69DBB2F6
:104D50001A46796901F0E8FC002318461837BD4669
:104D600080BD80B584B000AF78600B46FB70FB78E7
:104D700003F00F027B685B689A4201D9012350E07F
:104D800097F90330002B0FDAFB7803F00F0213467C
:104D9000DB009B1A9B0038337A6813440433FB60B2
:104DA000FB6801225A700DE0FA781346DB009B1A6B
:104DB0009B0003F5FC737A6813440433FB60FB68C3
:104DC00000225A70FB6801229A70FB7803F00F03EF
:104DD000DAB2FB681A707B6893F8BC33012B01D1FF
:104DE00002231EE07B68012283F8BC237B681B68DA
:104DF000F968184602F09AF8FB7803F00F03002BCD
:104E00000AD17B6818687B681B69D9B27B6803F597
:104E100071731A4602F04AFA7B68002283F8BC23B9
:104E2000002318461037BD4680BD80B584B000AF62
:104E300078600B46FB70FB7803F00F027B685B68C1
:104E40009A4201D9012342E097F90330002B0FDA8F
:104E5000FB7803F00F021346DB009B1A9B003833EC
:104E60007A6813440433FB60FB6801225A700FE038
:104E7000FB7803F00F021346DB009B1A9B0003F53F
:104E8000FC737A6813440433FB60FB6800225A7099
:104E9000FB6800229A70FB7803F00F03DAB2FB681C
:104EA0001A707B6893F8BC33012B01D102230EE00A
:104EB0007B68012283F8BC237B681B68F96818466D
:104EC00002F0A2F87B68002283F8BC230023184676
:104ED0001037BD4680BD80B58AB002AF78603960BA
:104EE0007B681B687B617B693B613A681346DB002A
:104EF0009B1A9B0038337A6813440433FB60FB68C9
:104F00009A69FB685B699A4201D901236CE0FB68EE
:104F10005A69FB689B69D31AFB61FB689B68FA6955
:104F20009A4202D9FB689B68FB61FB6903339B08CB
:104F3000BB612BE0FB685A69FB689B69D31AFB6174
:104F4000FB689B68FA699A4202D9FB689B68FB611F
:104F5000FB6903339B08BB61FB68D9683B68DAB225
:104F6000FB6998B27B681B69DBB2009303467869E2
:104F700001F07EFFFB68DA68FB691A44FB68DA60BF
:104F8000FB689A69FB691A44FB689A613B685A019D
:104F90003B69134403F510639B699BB2BA699A425B
:104FA00009D8FB689A69FB685B699A4203D2FB687F
:104FB0005B69002BBED1FB685A69FB689B699A420A
:104FC00011D83B6803F00F03012202FA03F3BB6020
:104FD0003B6903F500635A6BBB68DB43396901F534
:104FE000006113404B63002318462037BD4680BD47
:104FF00080B586B000AF786039607B681B687B61E4
:105000007B693B617B693C3304331B68FB603B6815
:105010005A013B69134403F530639B68BB607B68AE
:105020001B69012B40F0A080BB6803F00803002B34
:1050300015D0FB68724A934240F2DD80BB6803F4EE
:105040000043002B00F0D7803B685A013B691344B2
:1050500003F530631A464FF400439360CBE0BB681E
:1050600003F02003002B09D03B685A013B6913442D
:1050700003F530631A4620239360BCE0BB6803F05D
:105080002803002B40F0B780FB685D4A93420FD99C
:10509000BB6803F40043002B0AD03B685A013B690C
:1050A000134403F530631A464FF400439360A2E0C3
:1050B00079683A681346DB009B1A9B000B4403F5A2
:1050C00001731A683B6859013B690B4403F530636F
:1050D0001B69C3F31203D11A78683A681346DB00E0
:1050E0009B1A9B00034403F50573196079683A68BD
:1050F0001346DB009B1A9B000B4403F502731968EF
:1051000078683A681346DB009B1A9B00034403F55A
:1051100001731B68194478683A681346DB009B1AD0
:105120009B00034403F5027319603B68002B14D104
:1051300079683A681346DB009B1A9B000B4403F521
:1051400004731B68002B08D17B6818687B6803F523
:1051500071731A46012102F0A9F83B68DBB21946C7
:10516000786803F0E1F946E0FB68264A934224D1CF
:10517000BB6803F40043002B0AD03B685A013B692B
:10518000134403F530631A464FF40043936032E052
:10519000BB6803F02003002B08D03B685A013B6931
:1051A000134403F530631A46202393603B68DBB257
:1051B0001946786803F0B8F91DE03B68002B14D15C
:1051C00079683A681346DB009B1A9B000B4403F591
:1051D00004731B68002B08D17B6818687B6803F593
:1051E00071731A46002102F061F83B68DBB2194680
:1051F000786803F099F9002318461837BD4680BD3A
:105200000A30544F0A31544F80B586B000AF7860F1
:1052100039607B681B687B617B693B617B693C33E0
:1052200004331B68FB603B685A013B69134403F578
:1052300030639B68BB60FB68154A93420ED9BB681C
:1052400003F40043002B09D03B685A013B69134427
:1052500003F530631A464FF400439360786803F017
:1052600051F9FB680A4A93420CD97B681B69012BF0
:1052700008D17B6818687B6803F571731A460121B1
:1052800002F014F8002318461837BD4680BD00BF51
:105290000A30544F80B582B000AF00237B60234BAF
:1052A0001B6C224A43F080531364204B1B6C03F0A9
:1052B00080533B603B681E4B1B681D4A43F48033A0
:1052C0001360FDF7C5FD786009E0FDF7C1FD0246FA
:1052D0007B68D31AB3F57A7F01D9032322E0144BFC
:1052E0005B6803F48033B3F5803FEED1104B1B684D
:1052F0000F4A43F400331360FDF7AAFD786009E01C
:10530000FDF7A6FD02467B68D31AB3F57A7F01D973
:10531000032307E0064B5B6803F40033B3F5003F5B
:10532000EED1002318460837BD4680BD0038024044
:105330000070004080B586B000AF78600023FB7538
:105340007B68002B01D101239BE27B681B6803F083
:105350000103002B00F08780964B9B6803F00C0341
:10536000042B0CD0934B9B6803F00C03082B12D139
:10537000904B5B6803F48003B3F5800F0BD18D4B2A
:105380001B6803F40033002B6CD07B685B68002B38
:1053900068D1012375E27B685B68B3F5803F06D175
:1053A000844B1B68834A43F4803313602EE07B6890
:1053B0005B68002B0CD17F4B1B687E4A23F4803343
:1053C00013607C4B1B687B4A23F4802313601DE031
:1053D0007B685B68B3F5A02F0CD1764B1B68754AD0
:1053E00043F480231360734B1B68724A43F4803389
:1053F00013600BE06F4B1B686E4A23F4803313601D
:105400006C4B1B686B4A23F4802313607B685B68DA
:10541000002B13D0FDF71CFD386108E0FDF718FDE7
:1054200002463B69D31A642B01D9032329E2614B5D
:105430001B6803F40033002BF0D014E0FDF708FDE7
:10544000386108E0FDF704FD02463B69D31A642B7E
:1054500001D9032315E2574B1B6803F40033002BDB
:10546000F0D100E000BF7B681B6803F00203002B53
:1054700069D0504B9B6803F00C03002B0BD04D4BB5
:105480009B6803F00C03082B1CD14A4B5B6803F4A8
:105490008003002B16D1474B1B6803F00203002B3F
:1054A00005D07B68DB68012B01D00123E9E1414B8A
:1054B0001B6823F0F8027B681B69DB003D4913433E
:1054C0000B6040E07B68DB68002B23D0394B1B6806
:1054D000384A43F001031360FDF7BAFC386108E075
:1054E000FDF7B6FC02463B69D31A022B01D9032310
:1054F000C7E1304B1B6803F00203002BF0D02D4BAB
:105500001B6823F0F8027B681B69DB002949134301
:105510000B6018E0274B1B68264A23F00103136039
:10552000FDF796FC386108E0FDF792FC02463B6906
:10553000D31A022B01D90323A3E11E4B1B6803F0EE
:105540000203002BF0D17B681B6803F00803002BDB
:1055500038D07B685B69002B19D0164B5B6F154AFE
:1055600043F001035367FDF773FC386108E0FDF772
:105570006FFC02463B69D31A022B01D9032380E159
:105580000C4B5B6F03F00203002BF0D01AE0094BC9
:105590005B6F084A23F001035367FDF759FC38613C
:1055A0000AE0FDF755FC02463B69D31A022B03D9EA
:1055B000032366E100380240924B5B6F03F0020365
:1055C000002BEED17B681B6803F00403002B00F076
:1055D000A4808C4B1B6C03F08053002B0DD1894BA6
:1055E0001B6C884A43F080531364864B1B6C03F09A
:1055F0008053BB60BB680123FB75834B1B6803F4BE
:105600008073002B18D1804B1B687F4A43F4807352
:105610001360FDF71DFC386108E0FDF719FC024638
:105620003B69D31A642B01D903232AE1764B1B680B
:1056300003F48073002BF0D07B689B68012B06D1AC
:10564000704B1B6F6F4A43F0010313672DE07B68BB
:105650009B68002B0CD16B4B1B6F6A4A23F0010334
:105660001367684B1B6F674A23F0040313671CE042
:105670007B689B68052B0CD1624B1B6F614A43F022
:10568000040313675F4B1B6F5E4A43F0010313670C
:105690000BE05C4B1B6F5B4A23F001031367594B14
:1056A0001B6F584A23F0040313677B689B68002B29
:1056B00015D0FDF7CDFB38610AE0FDF7C9FB0246C6
:1056C0003B69D31A41F28832934201D90323D8E0CF
:1056D0004C4B1B6F03F00203002BEED014E0FDF7E0
:1056E000B7FB38610AE0FDF7B3FB02463B69D31A0A
:1056F00041F28832934201D90323C2E0414B1B6F30
:1057000003F00203002BEED1FB7D012B05D13D4BB5
:105710001B6C3C4A23F0805313647B689B69002B0D
:1057200000F0AE80374B9B6803F00C03082B6DD064
:105730007B689B69022B4BD1324B1B68314A23F0AB
:1057400080731360FDF784FB386108E0FDF780FB90
:1057500002463B69D31A022B01D9032391E0294B5E
:105760001B6803F00073002BF0D17B68DA697B685B
:105770001B6A1A437B685B6A9B011A437B689B6ABE
:105780005B08013B1B041A437B68DB6A1B061A4358
:105790007B681B6B1B071B4913434B60194B1B6832
:1057A000184A43F080731360FDF752FB386108E03C
:1057B000FDF74EFB02463B69D31A022B01D90323A6
:1057C0005FE0104B1B6803F00073002BF0D057E034
:1057D0000C4B1B680B4A23F080731360FDF738FBFA
:1057E000386108E0FDF734FB02463B69D31A022B0F
:1057F00001D9032345E0034B1B6803F00073002B22
:10580000F0D13DE000380240007000401F4B5B6863
:10581000FB607B689B69012B30D0FB6803F480023E
:105820007B68DB699A4229D1FB6803F03F027B6801
:105830001B6A9A4222D1FA6847F6C07313407A680D
:10584000526A9201934219D1FB6803F440327B689B
:105850009B6A5B08013B1B049A420FD1FB6803F073
:1058600070627B68DB6A1B069A4207D1FB6803F013
:10587000E0427B681B6B1B079A4201D0012300E0CA
:10588000002318461837BD4680BD00BF00380240CF
:1058900080B584B000AF786039600023FB607B681E
:1058A000002B01D10123D0E06A4B1B6803F00F03EA
:1058B0003A689A4210D9674B1B6823F00F0265497A
:1058C0003B6813430B60634B1B6803F00F033A689C
:1058D0009A4201D00123B8E07B681B6803F0020301
:1058E000002B20D07B681B6803F00403002B05D03D
:1058F000594B9B68584A43F4E05393607B681B689C
:1059000003F00803002B05D0534B9B68524A43F425
:1059100060439360504B9B6823F0F0027B689B6868
:105920004D4913438B607B681B6803F00103002B18
:1059300040D07B685B68012B07D1474B1B6803F4A1
:105940000033002B15D101237FE07B685B68022BBD
:1059500007D1414B1B6803F00073002B09D10123D1
:1059600073E03D4B1B6803F00203002B01D10123C0
:105970006BE0394B9B6823F003027B685B68364918
:1059800013438B60FDF764FAF8600AE0FDF760FAF4
:105990000246FB68D31A41F28832934201D90323AD
:1059A00053E02D4B9B6803F00C027B685B689B0007
:1059B0009A42EBD1274B1B6803F00F033A689A42D7
:1059C00010D2244B1B6823F00F0222493B6813437B
:1059D0000B60204B1B6803F00F033A689A4201D01A
:1059E000012332E07B681B6803F00403002B08D01E
:1059F000194B9B6823F4E0527B68DB68164913431C
:105A00008B607B681B6803F00803002B09D0124BE6
:105A10009B6823F460427B681B69DB000E491343DB
:105A20008B6000F021F802460B4B9B681B0903F0CA
:105A30000F030A49CB5C22FA03F3094A1360094BAE
:105A40001B681846FDF7C0F9002318461037BD46FD
:105A500080BD00BF003C02400038024080E70008E3
:105A60000000002008000020B0B584B000AF002185
:105A700079600021F960002139600021B960524944
:105A8000896801F00C0108290DD0082900F29480E2
:105A9000002902D0042903D08EE04C4BBB608EE07D
:105AA0004B4BBB608BE04849496801F03F0179608E
:105AB0004549496801F48001002924D042494968D8
:105AC000890908464FF0000140F2FF144FF000052D
:105AD00000EA040201EA05033D4901FB03F000214D
