:020000040800F2
:100000000000082065760008010E0008070E0008B1
:100010000D0E0008130E0008190E00080000000065
:100020000000000000000000000000001F0E00089B
:100030002D0E0008000000003B0E0008490E0008CD
:10004000B5760008B5760008B5760008B5760008E4
:10005000B5760008B5760008B5760008B5760008D4
:10006000B5760008B5760008B5760008B5760008C4
:10007000B5760008B5760008B5760008B5760008B4
:10008000B5760008B5760008B5760008B5760008A4
:10009000B5760008B5760008B5760008B576000894
:1000A000B5760008B5760008B5760008B576000884
:1000B000B5760008B5760008B5760008B576000874
:1000C000B5760008B5760008B5760008B576000864
:1000D000B5760008B576000865100008B57600080A
:1000E000B5760008B5760008B5760008B576000844
:1000F000B5760008B5760008B5760008B576000834
:10010000B5760008B5760008B5760008B576000823
:10011000B5760008B5760008B5760008B576000813
:10012000550E0008B5760008B5760008B5760008CB
:10013000B5760008B5760008B5760008B5760008F3
:10014000B5760008B5760008B5760008690E000897
:10015000B5760008B5760008B5760008B5760008D3
:10016000B5760008B5760008B5760008B5760008C3
:10017000B5760008B5760008B576000800000000E6
:10018000B5760008B5760008B5760008B5760008A3
:10019000B5760008B5760008B5760008B576000893
:1001A000B5760008B5760008B5760008B576000883
:1001B000B5760008B5760008B5760008B576000873
:1001C000B5760008B576000800000000B576000896
:1001D000B5760008B5760008B5760008B576000853
:1001E000B5760008B5760008B5760008B576000843
:0801F000B5760008B5760008A1
:1002000010B5054C237833B9044B13B10448AFF350
:1002100000800123237010BDE401002000000000D5
:100220001CCF000808B5034B1BB103490348AFF3CB
:10023000008008BD00000000E80100201CCF00087D
:100240004B1C012B98BF70472DE9F003911C9B08B4
:10025000B1F80480B1F802900A8831F802CC8044E9
:10026000814402448444D9F80070D8F800601568CD
:10027000DCF80040C9F80060C8F80070CCF8005005
:100280001460D9F80470D8F804605568DCF80440AC
:10029000C9F80460C8F80470CCF804505460083100
:1002A000013BD5D1BDE8F00370474B1C012B98BF33
:1002B00070472DE9F003911C9B08B1F80480B1F858
:1002C00002900A8831F802CC00EB580800EB59097B
:1002D00000EB520200EB5C0CD9F80070D8F800601B
:1002E0001568DCF80040C9F80060C8F80070CCF868
:1002F000005014600831013BDFD1BDE8F0037047C6
:10030000034613F8012B002AFBD1181A0138704755
:1003100001F0FF01102A2BDB10F0070F08D010F8B6
:10032000013B013A8B422DD010F0070F42B3F6D1BA
:10033000F0B441EA012141EA014122F007047FF0D3
:1003400000070023F0E80256083C85EA010586EA2A
:10035000010685FA47F5A3FA87F586FA47F6A5FA66
:1003600087F68EB9EED1F0BC01F0FF0102F0070272
:1003700032B110F8013B013A83EA010313B1F8D11D
:100380000020704701387047002D06BF35460338FE
:10039000073815F0010F07D1013015F4807F02BF37
:1003A000013015F4C03F0130F0BC0138704700BF88
:1003B00053B94AB9002908BF00281CBF4FF0FF31CC
:1003C0004FF0FF3000F07AB9ADF1080C6DE904CEC2
:1003D00000F006F8DDF804E0DDE9022304B0704720
:1003E0002DE9F0478C460D460446089E002B51D15E
:1003F0008A4217466DD9B2FA82FEBEF1000F0BD0C9
:10040000CEF1200C01FA0EF520FA0CFC02FA0EF7E0
:100410004CEA050C00FA0EF44FEA174A250CBCFB17
:10042000FAF81FFA87F90AFB18CC45EA0C4508FBD5
:1004300009F3AB420AD9ED1908F1FF3280F02381AC
:10044000AB4240F22081A8F102083D44ED1AA4B26B
:10045000B5FBFAF00AFB105544EA054400FB09F924
:10046000A14509D9E41900F1FF3380F00A81A145C3
:1004700040F2078102383C44A4EB090440EA0840FA
:100480000021002E61D024FA0EF400233460736042
:10049000BDE8F0878B4207D9002E54D0002186E8B2
:1004A00021000846BDE8F087B3FA83F1002940F047
:1004B0008E80AB4202D3824200F2FA80841A65EB4E
:1004C00003050120AC46002E3FD086E81010BDE8A1
:1004D000F08712B90127B7FBF2F7B7FA87FEBEF132
:1004E000000F34D1EB1B3A0C1FFA87FC0121B3FB40
:1004F000F2F8250C02FB183345EA03450CFB08F320
:10050000AB4207D9ED1908F1FF3002D2AB4200F23D
:10051000D1808046ED1AA3B2B5FBF2F002FB105574
:1005200043EA05440CFB00FCA44507D9E41900F19B
:10053000FF3302D2A44500F2B8801846A4EB0C04A5
:1005400040EA08409DE731463046BDE8F087CEF1ED
:10055000200405FA0EF307FA0EF720FA04F83A0C15
:1005600025FA04F448EA0308B4FBF2F14FEA18450F
:1005700002FB11441FFA87FC45EA044501FB0CF31A
:10058000AB4200FA0EF409D9ED1901F1FF3080F009
:100590008A80AB4240F2878002393D44EB1A1FFA51
:1005A00088F5B3FBF2F002FB103345EA034500FB8C
:1005B0000CF3AB4207D9ED1900F1FF386FD2AB4213
:1005C0006DD902383D44EB1A40EA01418FE7C1F191
:1005D000200722FA07F88B4005FA01F448EA0303E2
:1005E00020FA07FE4FEA134CFD404EEA040EB5FB1D
:1005F000FCF94FEA1E440CFB19551FFA83F844EA34
:10060000054509FB08F4AC4202FA01F200FA01FACE
:1006100008D9ED1809F1FF3043D2AC4241D9A9F114
:1006200002091D442D1B1FFA8EFEB5FBFCF00CFBCE
:1006300010554EEA054400FB08F8A04507D9E41818
:1006400000F1FF3529D2A04527D902381C4440EAE1
:100650000940A4EB0804A0FB02894C45C6464D4660
:1006600015D312D056B1BAEB0E0364EB050404FAAD
:1006700007F7CB401F43CC40376074600021BDE8D2
:10068000F0871846F8E69046E0E6C245EAD2B8EBB5
:10069000020E69EB03050138E4E72846D7E7404638
:1006A00091E78146BEE7014678E702383C4445E7DA
:1006B000084608E7A8F102083D442BE7704700BF51
:1006C00080B584B000AF0346FB800C4BFB60FB6839
:1006D00007EE903AF8EE677A094A0A4B1344C3EDE5
:1006E000007A094AFB881380FB881946074807F0FF
:1006F00049F800BF1037BD4680BD00BF40420F0023
:10070000748603200860010010C4012014C4012075
:1007100080B582B000AF2A4802F004F90023FB80C4
:1007200009E0FB88274AD26C91B2274A22F81310BD
:10073000FB880133FB80FB88B3F5805FF1D3002396
:10074000BB801EE0BB88BA881F4931F8122007EE33
:10075000902AF8EEE77A9FED1D7A27EE877ADFED93
:100760001C6AC7EE267A9FED1B7A77EEC77A164A87
:1007700003F500639B001344C3ED007ABB8801338B
:10078000BB80BB88B3F5805FDCD300F025F80E4B4F
:1007900003F520434FF000021A600B4A4AF20403AB
:1007A00013444FF000021A60074A4AF20803134448
:1007B0004FF000021A6000BF0837BD4680BD00BF81
:1007C0002CC40120002001407486032033335340A1
:1007D000000080453333D33F90B585B000AF334B35
:1007E0007B600023FB601FE0FB689B00304A9C1885
:1007F000FB6807EE903AB8EE677AD7ED017A67EEBC
:10080000277AB0EE670A07F0BDFDB0EE407AF6EE4B
:10081000007A67EE277AB6EE007A77EE677AC4ED53
:10082000007AFB680133FB60FB68B3F5805FDBD3C4
:100830000023BB6018E0BB689B001E4A1A44BB68DB
:1008400007EE903AB8EE677A1B491C4B0B44D3ED88
:10085000007A27EE277ADFED1A6AC7EE267AC2ED14
:10086000007ABB680133BB60BB68B3F5006FE2D3AD
:100870004FF48053134A0E49124807F0C3FD00237A
:10088000114A1049114807F031F84FF4006210493D
:100890000D4807F08FFC0F4B0F4A40F2FD710F48D7
:1008A00006F00AFF00BF1437BD4690BDDB0FC93A02
:1008B0007C6604207CA60420748603200860010066
:1008C0000000804574A6032074E6032014C40120B0
:1008D0007426042078660420746604208026042090
:1008E00090B589B004AFFFF713FF01F043F8834BD5
:1008F00005221A80814B28225A80804B1B88C3F521
:10090000F0739AB27D4B9A807C4B40F23B12DA80B6
:100910007A4B4FF478421A82002000F0F5F8774BBA
:100920001888764B5988754B9A88744BDC884FF63B
:10093000FF730093234601F0ADF8704B1B88013321
:100940009AB26E4B1A816D4B4FF496725A816B4B73
:100950001A896A4B9A81694B5988684BDA884FF635
:10096000E07300930323632001F056F9634B598829
:10097000624BDA884FF6E07300930323BB2001F04B
:100980004BF95E4B59885D4BDA884FF6E073009364
:1009900003234FF48C7001F03FF9584B5988574BA3
:1009A000DA884FF6E073009303234FF4BB7001F035
:1009B00033F9534A4EF2040313441B689BB20133CC
:1009C0009AB200230293002301934FF478430093DB
:1009D000134600221421282001F0A6FA484B03F503
:1009E0006043D3ED007AFCEEE77AC7ED017ABB886D
:1009F0009AB200230293002301934FF478430093AB
:100A0000134600221421782001F08EFA3B4BDB8A3A
:100A1000FB605CE0394B9B8901339AB2374B9A817A
:100A2000364B9A89354B9B889A4206D9334B9B8823
:100A3000013B9AB2314B9A8103E0304B9A892F4B9C
:100A40009A812F4AFB6803F520539B001344D3ED92
:100A5000007A77EEA77A9FED2B7A77EE677AFCEE35
:100A6000E77AC7ED017ABB889AB2244BDA81234B2F
:100A7000DB891A46214B5B8802339A4206DA1F4B08
:100A80005B8802339AB21D4BDA8103E01B4BDA8993
:100A90001A4BDA81194B1B8918B2184B5B8919B2B2
:100AA000164B9B891AB2154BDB891CB2134B1B8A60
:100AB0000093234601F027F8104BDA890F4B5A8137
:100AC0000E4B9A890D4B1A81FB680133FB600B4B6F
:100AD0005B8B1A46FB689A429CDC084B00221A8109
:100AE000064B00225A81054B00229A81034B0022BB
:100AF000DA8100BF1437BD4690BD00BF80E60420F8
:100B0000748603200000964380B483B000AF034690
:100B1000FB800B4AFB88D382094B9B88013B9AB22E
:100B2000074B1A83064BDA8A054B1B8B13449AB288
:100B3000034B5A8300BF0C37BD465DF8047B7047FA
:100B400080E6042080B400AFBFF34F8FBFF36F8FF8
:100B50000B4B0022C3F85022BFF34F8FBFF36F8FB0
:100B6000074A074B5B6943F400335361BFF34F8F70
:100B7000BFF36F8F00BFBD465DF8047B704700BFB9
:100B800000ED00E080B485B000AF1D4B0022C3F83B
:100B90008420BFF34F8F1A4BD3F880307B607B6883
:100BA0005B0BC3F30E03FB607B68DB08C3F3090335
:100BB000BB601349FB685A0143F6E0731340BA68FF
:100BC00092071343C1F86032BB685A1EBA60002B0B
:100BD000EFD1FB685A1EFA60002BE5D1BFF34F8FAF
:100BE000074A074B5B6943F480335361BFF34F8F70
:100BF000BFF36F8F00BF1437BD465DF8047B7047AD
:100C000000ED00E080B584B000AFF860B9607A60B4
:100C1000FB68012B0AD0FB68022B07D007F02AFFE4
:100C20000246092313604FF0FF3304E07968B86887
:100C300006F08AFA7B6818461037BD4680BD000072
:100C400080B500AFFFF77EFFFFF79CFF01F0EAFDE4
:100C500000F01EF800F0BAFA012000F02FFD01F0BC
:100C60001FFC4FF47A7001F03BFE00F083FE4FF45E
:100C70008050FFF725FD4FF416324FF478410348BA
:100C800007F02AFFFFF72CFEFCE700BF74C4012029
:100C900080B5B8B000AF07F1AC033422002118468C
:100CA00007F01AFF07F1980300221A605A609A6051
:100CB000DA601A6107F1080390220021184607F054
:100CC0000BFF394A384B1B6C43F080531364364B8F
:100CD0001B6C03F080537B607B68344A334B1B688A
:100CE00043F440431360314B1B6803F440433B60C3
:100CF0003B680123C7F8AC304FF48033C7F8B030FD
:100D00000223C7F8C4304FF48003C7F8C8300A2361
:100D1000C7F8CC30D823C7F8D0300223C7F8D43076
:100D20000923C7F8D83007F1AC03184603F02EF9B1
:100D30000346002B01D000F03BF803F0D7F8034640
:100D4000002B01D000F034F80F23C7F898300223AD
:100D5000C7F89C300023C7F8A0304FF4A053C7F861
:100D6000A4304FF48053C7F8A83007F19803072147
:100D7000184603F0B9FB0346002B01D000F018F829
:100D80004FF40013BB600023C7F8843007F1080359
:100D9000184603F057FD0346002B01D000F008F879
:100DA00000BFE037BD4680BD003802400070004003
:100DB00080B400AF72B6FEE780B483B000AF0F4AD4
:100DC0000E4B1B6C43F0805313640C4B1B6C03F0F5
:100DD00080537B607B68094A084B5B6C43F480431B
:100DE0005364064B5B6C03F480433B603B6800BF7D
:100DF0000C37BD465DF8047B704700BF00380240E9
:100E000080B400AFFEE780B400AFFEE780B400AF6F
:100E1000FEE780B400AFFEE780B400AFFEE780B429
:100E200000AF00BFBD465DF8047B704780B400AFE3
:100E300000BFBD465DF8047B704780B400AF00BFC3
:100E4000BD465DF8047B704780B500AF01F028FD1A
:100E500000BF80BD80B500AF024801F015FF00BFA4
:100E600080BD00BFD4E8042080B500AF024802F086
:100E700095F800BF80BD00BF00ED042090B587B09D
:100E800000AFF860B9607A6000237B610AE0BC685B
:100E9000631CBB60AFF300800346DBB223707B6949
:100EA00001337B617A697B689A42F0DB7B68184684
:100EB0001C37BD4690BD000080B584B000AF78609F
:100EC000114B1B68002B02D10F4B104A1A600E4BBE
:100ED0001B68FB600C4B1A687B6813446A4693429C
:100EE00007D907F0C7FD02460C2313604FF0FF330C
:100EF00006E0054B1A687B681344034A1360FB68DD
:100F000018461037BD4680BD0002002008F10420BD
:100F100080B483B000AF78604FF0FF3318460C37D1
:100F2000BD465DF8047B704780B483B000AF786045
:100F300039603B684FF400525A60002318460C3762
:100F4000BD465DF8047B704780B483B000AF786025
:100F5000012318460C37BD465DF8047B704780B40A
:100F600085B000AFF860B9607A6000231846143786
:100F7000BD465DF8047B704780B400AF064A064B5F
:100F8000D3F8883043F47003C2F8883000BFBD4600
:100F90005DF8047B704700BF00ED00E080B483B0D3
:100FA00000AF0346FB7197F90730002B0CDB0949B2
:100FB00097F907305B09FA7902F01F02012000FA65
:100FC00002F2603341F8232000BF0C37BD465DF8C4
:100FD000047B704700E100E080B483B000AF0346BB
:100FE000FB7100BF074BDB6903F04003002BF9D016
:100FF000044AFB79936200BF0C37BD465DF8047B61
:10100000704700BF004400400FB480B5C2B000AFCD
:10101000002387F8073107F58A723B461A603B4682
:10102000381D1B68D7F810214FF4807109F09EFC21
:101030000AE097F807315A1C87F807211A463B1D2A
:101040009B5C1846FFF7C8FF97F807313A1DD35C41
:10105000002BEED100BF07F58477BD46BDE8804088
:1010600004B0704780B500AF054B5B6A002B02D01F
:10107000044800F009F82620FFF790FF00BF80BD6C
:1010800000440040C8E9042080B584B000AF786017
:101090000023FB730023BB81184BDB6903F02003A3
:1010A000002B16D0154B5B6AFB73BB895A1CBA81A7
:1010B0001A467B681344FA7B1A70104A0F4B9B69DF
:1010C00043F0080393610D4A0C4B1B6A43F008037D
:1010D0001362FB7B0D2BDFD1BB89013BBB81BB893D
:1010E0007A68134400221A70054B01225A707868FE
:1010F000FFF78AFF00BF1037BD4680BD00440040A7
:10110000BCE9042080B584B000AF7860144BDB6983
:10111000144AA2FB03239B0C7A6802FB03F3124AD6
:10112000A2FB03235B08FB6000F032F80F4B0022A8
:101130005A600E4A0D4B1B6843F00103136000BF59
:101140000A4B5A68FB689A42FAD3084A074B1B6855
:1011500023F00103136000BF1037BD4680BD00BF00
:1011600090E9042083DE1B43ABAAAAAA001000E08A
:1011700080B582B000AF78607B684FF47A7202FB72
:1011800003F31846FFF7BEFF00BF0837BD4680BD1A
:1011900080B400AF0A4A0A4BDB6843F08073D36027
:1011A000084B094AC3F8B02F064B00225A60054B82
:1011B00000221A6000BFBD465DF8047B704700BF87
:1011C000F0ED00E0001000E055CEACC580B400AFFB
:1011D000084A084B5B6B43F040035363064A064BD7
:1011E0001B6843F00403136000BFBD465DF8047B39
:1011F000704700BF003802400008065080B483B03A
:1012000000AF0346FB71FA7913461B0113445B00E0
:10121000034A134418460C37BD465DF8047B7047FB
:1012200098D2000880B483B000AF0346FB71FB790D
:101230002F2B0AD9FB79392B07D8FB79303B322287
:1012400002FB03F3044A134400E0002318460C3762
:10125000BD465DF8047B704798F4000880B483B005
:1012600000AF0346FB71FB792F2B0CD9FB79392B8F
:1012700009D8FB79A3F1300213465B0113445B00EC
:10128000044A134400E0002318460C37BD465DF8BD
:10129000047B70478CF6000880B483B000AF03462F
:1012A000FB71FA7913469B0013445B00034A134415
:1012B00018460C37BD465DF8047B704720F90008DE
:1012C00080B582B000AF03460A46FB711346BB717E
:1012D000FB79054A52F82330BA79104698470346FD
:1012E00018460837BD4680BD2003010880B483B08E
:1012F00000AF78607B681B7818460C37BD465DF8F8
:10130000047B704780B483B000AF78607B680133A2
:101310007B607B681B7818460C37BD465DF8047B04
:10132000704700000EB480B5CBB004AF0246FB1D81
:101330001A70474B4FF4FC625A80454B00221A80CA
:10134000FB1D1B78012B08D0022B0BD0002B0ED1DC
:101350003F4B5B88A7F8163109E04FF62053A7F8FA
:10136000163104E04FF47843A7F8163100BF07F5B3
:10137000947207F108031A6007F1080307F10C00E3
:101380001B68D7F824214FF4807109F0EFFA314B34
:101390001B881A46920013445B0099B207F10C02B5
:1013A000012302934FF6FF730193B7F816310093B0
:1013B00013460022002000F03EFD07F10C03194601
:1013C000254808F0ADFBFB1D1B78002B0FD0002338
:1013D000C7F8103105E000BFD7F810310133C7F866
:1013E0001031D7F810314CF24F329342F3D9194BE8
:1013F0001B8801339AB2174B1A80164B1B88202B7F
:101400001DD9144B00221A800023C7F80C3105E0C7
:1014100000BFD7F80C310133C7F80C31D7F80C31C5
:101420004CF24F329342F3D900F0A4FA084B1B88D8
:10143000184600F0BDFA4FF47A70FFF799FE00BF2E
:1014400007F58E77BD46BDE8804003B0704700BF0A
:1014500034E904200402002038CF000880B483B0AF
:1014600000AF0346FB71044AFB79137000BF0C37D1
:10147000BD465DF8047B7047FFFF01C080B483B0B8
:1014800000AF0346FB71044AFB79537000BF0C3771
:10149000BD465DF8047B7047FFFF01C080B400AF1C
:1014A000364A364B1B6B43F008031363334A334B06
:1014B0001B6B43F010031363304A304B1B6B43F03C
:1014C000200313632D4A2D4B1B6B43F04003136322
:1014D0002A4A2A4B1B6B43F080031363274A274B8E
:1014E0001B6B43F004031363254B264A1A60244BFD
:1014F000254A9A60224B4FF0CC121A62204B4FF0D3
:101500004C425A621E4A1E4B1B6843F40003136090
:101510001B4A1B4B9B6843F440039360184A184BCB
:101520005B6A43F440435362184B4FF42A121A602B
:10153000164B4FF47F129A60144B4FF040421A62E0
:10154000124B40F6CC425A62114B02221A60104BE9
:1015500003229A600E4B0C221A620E4B4FF400428B
:101560001A600C4B4FF440429A600A4B4FF0104205
:101570001A6200BFBD465DF8047B70470038024028
:10158000000C02400A0A00A00F0F00F000100240F9
:10159000001402400008024080B400AF174A174B05
:1015A0009B6B43F001039363144A144B5B6C43F44D
:1015B00080435364124A124B1B6843F480631360E8
:1015C0004FF0204300225A604FF0204300221A605F
:1015D0004FF020414FF020431A680A4B13430B6031
:1015E0004FF020414FF020435A68074B13434B60A4
:1015F00000BFBD465DF8047B704700BF0038024065
:1016000000380140431928002203201280B582B01F
:1016100000AF0346FB71FB7903F00303DAB2244BFE
:101620001A70234B1B78032B36D801A252F823F0F3
:1016300041160008571600086D16000883160008AA
:101640004823FB711B4B40F2E1121A801A4B40F207
:1016500041121A8020E02823FB71164B4FF4A07230
:101660001A80154B4FF4F0721A8015E08823FB7135
:10167000104B40F2E1121A800F4B40F241121A80D7
:101680000AE0E823FB710B4B4FF4A0721A800A4B5F
:101690004FF4F0721A8000BF3620FFF7EFFEFB799F
:1016A0001846FFF7DBFE00BF0837BD4680BD00BF10
:1016B00006020020040000200600002080B586B04D
:1016C00000AF0346FB71FFF7E9FEFFF765FF01205E
:1016D000FFF7D4FE00237B6103E000BF7B69013389
:1016E0007B617B69584A9342F7D9B020FFF7C6FE69
:1016F0000020FFF7B3FE3A20FFF7C0FE5520FFF7AA
:10170000ADFEE020FFF7BAFE0F20FFF7A7FE1F2077
:10171000FFF7A4FE1C20FFF7A1FE0C20FFF79EFEA2
:101720000F20FFF79BFE0820FFF798FE4820FFF7E9
:1017300095FE9820FFF792FE3720FFF78FFE0A20D4
:10174000FFF78CFE1320FFF789FE0420FFF786FECB
:101750001120FFF783FE0D20FFF780FE0020FFF72A
:101760007DFEE120FFF78AFE0F20FFF777FE322093
:10177000FFF774FE2E20FFF771FE0B20FFF76EFEC1
:101780000D20FFF76BFE0520FFF768FE4720FFF7EF
:1017900065FE7520FFF762FE3720FFF75FFE06202B
:1017A000FFF75CFE1020FFF759FE0320FFF756FEFF
:1017B0002420FFF753FE2020FFF750FE0020FFF704
:1017C0004DFEC520FFF75AFE0020FFF747FE002020
:1017D000FFF744FE0020FFF741FE0020FFF73EFE2A
:1017E000C220FFF74BFE4420FFF738FE3620FFF7FC
:1017F00045FE0820FFF732FE1120FFF73FFE0023D1
:101800003B6103E000BF3B6901333B613B690F4A29
:101810009342F7D92920FFF731FE2C20FFF72EFE47
:101820000023FB6003E000BFFB680133FB60FB6843
:1018300042F20F729342F6D9FB791846FFF7E6FEA3
:1018400000BF1837BD4680BD3F420F009F86010094
:1018500080B582B000AF03460A46FB801346BB80CA
:101860002A20FFF70BFEFB881B0A9BB2DBB218464F
:10187000FFF7F4FDFB88DBB21846FFF7EFFDBB88EE
:101880001B0A9BB2DBB21846FFF7E8FDBB88DBB250
:101890001846FFF7E3FD00BF0837BD4680BD80B5A1
:1018A00082B000AF03460A46FB801346BB802B2064
:1018B000FFF7E4FDFB881B0A9BB2DBB21846FFF77B
:1018C000CDFDFB88DBB21846FFF7C8FDBB881B0ABD
:1018D0009BB2DBB21846FFF7C1FDBB88DBB21846EE
:1018E000FFF7BCFD00BF0837BD4680BD90B583B093
:1018F00000AF0446084611461A462346FB800346BD
:10190000BB800B467B8013463B807A88FB88114660
:101910001846FFF79DFF3A88BB8811461846FFF727
:10192000BEFF2C20FFF7AAFD00BF0C37BD4690BDBF
:1019300080B582B000AF0346FB800B46BB801346E8
:101940007B80BB88FA88B988F888FFF7CFFFBB880F
:10195000064A128802FB03F2FB88134404497A8882
:1019600021F8132000BF0837BD4680BD04000020C9
:1019700074C4012080B500AF0A4B1A880A4B1B883B
:1019800000210020FFF7B2FF064B1B881A46064BCA
:101990001B8803FB02F31A460021044807F09CF859
:1019A00000BF80BD060000200400002074C4012098
:1019B00080B582B000AF0346FB800C4B1A880C4BFD
:1019C0001B8800210020FFF791FFF988074B1B8837
:1019D0001A46074B1B8803FB02F31A46054807F01B
:1019E0007BF800BF0837BD4680BD00BF0600002061
:1019F0000400002074C4012090B585B000AF0446F7
:101A0000084611461A462346FB800346BB800B4618
:101A10007B8013463B800023FB600CE0FB689AB29E
:101A2000BB88134499B23A88FB881846FFF780FFB9
:101A3000FB680133FB607A88FB689A42EEDC00BFEA
:101A40001437BD4690BD90B585B000AF044608463A
:101A500011461A462346FB800346BB800B467B801B
:101A600013463B800023FB600CE0FB689AB2FB88C6
:101A700013449BB23A88B9881846FFF759FFFB68B0
:101A80000133FB607A88FB689A42EEDC00BF1437B2
:101A9000BD4690BD90B585B000AF044608461146DE
:101AA0001A462346FB800346BB800B467B801346C9
:101AB0003B807A88FB88D31AFB813A88BB88D31A8B
:101AC000BB813B8CBA89B988F888FFF795FF3B8CBE
:101AD000FA89B988F888FFF7B6FFFA88FB891344BA
:101AE00098B23B8CBA89B988FFF786FFBA88BB8960
:101AF000134499B23B8CFA89F888FFF7A4FF00BF22
:101B00001437BD4690BD90B589B000AF0446084675
:101B100011461A462346FB810346BB810B467B8157
:101B200013463B81B7F90A20B7F90E30D31A07EEF6
:101B3000903AB8EEE77BB0EEC77BFCEEC77BC7ED13
:101B4000017ABB88BB83B7F90820B7F90C30D31AE8
:101B500007EE903AB8EEE77BB0EEC77BFCEEC77BB2
:101B6000C7ED017ABB887B83B7F90E20B7F90A303D
:101B70009A4201DA012301E04FF6FF733B83B7F984
:101B80000C20B7F908309A4201DA012301E04FF640
:101B9000FF73FB82BA8B7B8BD31AFB837B893989DA
:101BA0003A8E1846FFF7C4FE26E0FB89B9893A8EC3
:101BB0001846FFF7BDFEFB8B5B009BB2BB82B7F9FB
:101BC00014207B8B5B429A4208DDFA8B7B8BD31A05
:101BD000FB83FA893B8B13449BB2FB81B7F914203A
:101BE000BB8B9A4208DAFA8BBB8B1344FB83BA890E
:101BF000FB8A13449BB2BB81B7F90E20B7F90A30B8
:101C00009A42D2D1B7F90C20B7F908309A42CCD118
:101C100000BF2437BD4690BD90B585B000AF0446E7
:101C2000084611461A462346FB800346BB800B46F6
:101C30007B8013463B80BB88FB810BE03B8C3A8862
:101C4000F989F888FFF7D8FEFA893B8813449BB2DC
:101C50000A33FB81FA897B889A42EFD300BF14379D
:101C6000BD4690BD90B587B000AF0446084611460A
:101C70001A462346FB800346BB800B46FB70134687
:101C8000BB70BA78FB7811461846FFF719FB38612C
:101C90003869FFF72BFB0346FB733869FFF732FB0C
:101CA0000346BB733B6902333B61FB78002B43D196
:101CB0000023FB753BE00023BB7531E0FB7D3A69F7
:101CC00013441B781A46BB7DC3F1070342FA03F3A2
:101CD00003F00103002B0ED0BB7D9AB2FB881344A6
:101CE00098B2FB7D9AB2BB8813449BB23A8D1946D9
:101CF000FFF71EFE11E097F83030002B0DD1BB7DB1
:101D00009AB2FB88134498B2FB7D9AB2BB88134405
:101D10009BB2BA8D1946FFF70BFEBB7D0133BB7535
:101D2000BA7DFB7B9A42C9D3FB7D0133FB75FA7DFB
:101D3000BB7B9A42BFD379E000237B7572E000231E
:101D40003B7568E03B7D072B31D87B7D5B001A46F5
:101D50003B6913441B781A463B7DC3F1070342FAE3
:101D600003F303F00103002B0ED03B7D9AB2FB88F6
:101D7000134498B27B7D9AB2BB8813449BB23A8DD0
:101D80001946FFF7D5FD43E097F83030002B3FD1DF
:101D90003B7D9AB2FB88134498B27B7D9AB2BB8894
:101DA00013449BB2BA8D1946FFF7C2FD30E07B7D2C
:101DB0005B0001333A6913441B781A463B7DC3F13B
:101DC0000F0342FA03F303F00103002B0ED03B7D17
:101DD0009AB2FB88134498B27B7D9AB2BB881344B5
:101DE0009BB23A8D1946FFF7A3FD11E097F830300A
:101DF000002B0DD13B7D9AB2FB88134498B27B7DBA
:101E00009AB2BB8813449BB2BA8D1946FFF790FD76
:101E10003B7D01333B753A7DFB7B9A4292D37B7DC0
:101E200001337B757A7DBB7B9A4288D3FB7B184656
:101E30001C37BD4690BD90B58DB004AF7B600346A6
:101E4000FB810B46BB811346FB727B681A78FB7AD9
:101E500011461846FFF734FAB8610023FB77FB8977
:101E6000FB82B869FFF74EFA03467B7554E07B6846
:101E70001B780A2B06D00D2B0FD0002B10D101237D
:101E8000FB7746E0B869FFF73DFA03467B757B7D3B
:101E90009AB2BB891344BB813BE0FB8AFB8138E0EB
:101EA00097F83830002B13D07B681C78FA7AB98900
:101EB000F88901230293002301933B8E009323466C
:101EC000FFF7D0FE03469AB2FB891344FB8112E070
:101ED0007B681C78FA7AB989F88900230293BB8E53
:101EE00001933B8E00932346FFF7BCFE03469AB254
:101EF000FB891344FB817B681A78FB7A11461846EC
:101F0000FFF7DEF903461846FFF7FCF903467B7539
:101F100000BF7B6801337B60FB7F002BA7D0FB8970
:101F200018462437BD4690BD90B589B004AF04462D
:101F3000084611461A462346FB800346BB800B46E3
:101F4000FB7013463B803B88092B78D93B88632B79
:101F500075D838883A889D4BA3FB0213D9080B46E5
:101F60009B000B445B00D31A9BB2C31A984A82FBB6
:101F700003129210DB17D31AFB733A88934BA3FB1F
:101F80000213D9080B469B000B445B00D31A9BB28B
:101F9000BB7397F82830002B28D0FB7B3033DCB2A2
:101FA000FA78B988F88801230293002301933B8CC7
:101FB00000932346FFF756FE03469AB2FB8813446C
:101FC000FB80BB7B3033DCB2FA78B988F888012318
:101FD0000293002301933B8C00932346FFF742FEBC
:101FE00003469AB2FB881344FB8049E2FB7B303303
:101FF000DCB2FA78B988F88800230293BB8C01938D
:102000003B8C00932346FFF72DFE03469AB2FB88D4
:102010001344FB80BB7B3033DCB2FA78B988F88894
:1020200000230293BB8C01933B8C00932346FFF764
:1020300019FE03469AB2FB881344FB8020E23B88DA
:10204000632B40F2C9803B88B3F57A7F80F0C4806F
:102050003A883B885F49A1FB03014909642000FBE2
:1020600001F15B1A9BB2D31A5A4A82FB0312521136
:10207000DB17D31A7B7338883A88544BA3FB0213BF
:10208000D9080B469B000B445B00D31A9BB2C21AC3
:1020900039883B884F48A0FB03404009642404FB77
:1020A00000F01B1A9BB2CB1AD31A494A82FB0312C7
:1020B0009210DB17D31AFB733A88444BA3FB02132D
:1020C000D9080B469B000B445B00D31A9BB2BB7331
:1020D00097F82830002B3CD07B7B3033DCB2FA7889
:1020E000B988F88801230293002301933B8C009365
:1020F0002346FFF7B7FD03469AB2FB881344FB80E3
:10210000FB7B3033DCB2FA78B988F888012302937C
:10211000002301933B8C00932346FFF7A3FD034666
:102120009AB2FB881344FB80BB7B3033DCB2FA7875
:10213000B988F88801230293002301933B8C009314
:102140002346FFF78FFD03469AB2FB881344FB80BA
:1021500096E17B7B3033DCB2FA78B988F8880023CB
:102160000293BB8C01933B8C00932346FFF77AFDCF
:1021700003469AB2FB881344FB80FB7B3033DCB20E
:10218000FA78B988F88800230293BB8C01933B8CC2
:1021900000932346FFF766FD03469AB2FB8813447B
:1021A000FB80BB7B3033DCB2FA78B988F888002337
:1021B0000293BB8C01933B8C00932346FFF752FDA7
:1021C00003469AB2FB881344FB8059E1CDCCCCCCBA
:1021D000676666661F85EB513B88B3F57A7FC0F072
:1021E0000E813B8842F20F72934200F208813A88D6
:1021F0003B88A649A1FB030189094FF47A7000FBD3
:1022000001F15B1A9BB2D31AA04A82FB031292110E
:10221000DB17D31A3B733A883B889D49A1FB030126
:102220004909642000FB01F15B1A9BB2D21A39887C
:102230003B889648A0FB034080094FF47A7404FB66
:1022400000F01B1A9BB2CB1AD31A914A82FB0312DD
:102250005211DB17D31A7B7338883A888D4BA3FB56
:102260000213D9080B469B000B445B00D31A9BB2A8
:10227000C21A39883B888648A0FB03404009642481
:1022800004FB00F01B1A9BB2CB1AD31A824A82FBC2
:1022900003129210DB17D31AFB733A887D4BA3FB12
:1022A0000213D9080B469B000B445B00D31A9BB268
:1022B000BB7397F82830002B50D03B7B3033DCB217
:1022C000FA78B988F88801230293002301933B8CA4
:1022D00000932346FFF7C6FC03469AB2FB881344DB
:1022E000FB807B7B3033DCB2FA78B988F888012335
:1022F0000293002301933B8C00932346FFF7B2FC2B
:1023000003469AB2FB881344FB80FB7B3033DCB27C
:10231000FA78B988F88801230293002301933B8C53
:1023200000932346FFF79EFC03469AB2FB881344B2
:10233000FB80BB7B3033DCB2FA78B988F8880123A4
:102340000293002301933B8C00932346FFF78AFC02
:1023500003469AB2FB881344FB8091E03B7B303309
:10236000DCB2FA78B988F88800230293BB8C019319
:102370003B8C00932346FFF775FC03469AB2FB881B
:102380001344FB807B7B3033DCB2FA78B988F88861
:1023900000230293BB8C01933B8C00932346FFF7F1
:1023A00061FC03469AB2FB881344FB80FB7B30330D
:1023B000DCB2FA78B988F88800230293BB8C0193C9
:1023C0003B8C00932346FFF74DFC03469AB2FB88F3
:1023D0001344FB80BB7B3033DCB2FA78B988F888D1
:1023E00000230293BB8C01933B8C00932346FFF7A1
:1023F00039FC03469AB2FB881344FB8040E03B88DB
:1024000042F20F7293420CD9FA78B988F888012306
:102410000293BB8C01933B8C0093204BFFF70BFD89
:102420002EE097F82830002B15D03B88DBB23033F4
:10243000DCB2FA78B988F88801230293002301936B
:102440003B8C00932346FFF70DFC03469AB2FB88B2
:102450001344FB8014E03B88DBB23033DCB2FA7803
:10246000B988F88800230293BB8C01933B8C0093BE
:102470002346FFF7F7FB03469AB2FB881344FB8021
:10248000002318461437BD4690BD00BFD34D6210DF
:102490001F85EB51CDCCCCCC6766666640CF00087B
:1024A00080B584B002AFA84B7B60A84B3B60A84BC3
:1024B0001B881846FFF77CFA3B681A683B680433B0
:1024C00019683B6808331B6800930B46A14900203C
:1024D000FEF728FFA04B0722A0490120FEF722FFAC
:1024E0007B681B889BB21A469D490120FEF71AFFA4
:1024F0009C490020FEF716FF9B4B5B69002B03D025
:102500009A490020FEF70EFF974B5B69002B03D022
:1025100097490020FEF706FF964B1B69002B06D05B
:10252000944BDB681A4694490020FEF7FBFE934B60
:102530001B68002B03D092490020FEF7F3FE914B5D
:102540001B68002B03D090490020FEF7EBFE8F4B59
:102550001B68002B03D08E490020FEF7E3FE8D4B55
:102560001B68002B03D08C490020FEF7DBFE8B4B51
:10257000DB698B4A93420BD9884BDB69894AA2FB02
:1025800003239B0C1A4688490220FEF7CBFE0AE083
:10259000824BDB69834AA2FB03239B0C1A468349C7
:1025A0000020FEF7BFFE7D4BDB687E4AA2FB0323C3
:1025B0009B0C1A467E490020FEF7B4FE774B1B6940
:1025C000784AA2FB03239B0C1A467A490020FEF7A7
:1025D000A9FE724B5B69734AA2FB03239B0C1A464C
:1025E00075490020FEF79EFE6C4B9B696D4AA2FB6D
:1025F00003239B0C1A4671490020FEF793FE704B93
:102600001B68002B03D06F490020FEF78BFE6E4B3A
:102610009B68002B03D06D490020FEF783FE6C4BB6
:102620009B68002B03D06B490020FEF77BFE6A4BB2
:102630001B68002B03D069490020FEF773FE684B2E
:102640001B68002B0BD0664BDB685B00654AB2FB56
:10265000F3F35B001A4664490020FEF763FE634B08
:102660001B68002B0BD0614BDB685B005D4AB2FB43
:10267000F3F35B001A465E490020FEF753FE5D4B04
:102680001B68002B0BD05B4BDB685B00554AB2FB31
:10269000F3F35B001A4658490020FEF743FE574B00
:1026A0001B68002B0BD0554BDB685B004D4AB2FB1F
:1026B000F3F35B001A4652490020FEF733FE514BFC
:1026C0001B68002B0BD04F4BDB685B00454AB2FB0D
:1026D000F3F35B001A464C490020FEF723FE4B4BF8
:1026E0001B68002B0BD0494BDB685B003D4AB2FBFB
:1026F000F3F35B001A4646490020FEF713FE454BF4
:102700001B68002B0BD0434BDB685B00354AB2FBE8
:10271000F3F35B001A4640490020FEF703FE3F4BEF
:102720001B68002B0BD03D4BDB685B002D4AB2FBD6
:10273000F3F35B001A463A490020FEF7F3FD00BFB1
:102740000837BD4680BD00BF42F4F01F20F4F01FE3
:1027500034E904209CCF000801000500BCCF00082C
:10276000E4CF0008FCCF000800ED00E020D0000816
:1027700038D0000890ED00E050D000080070004014
:1027800078D00008002C004090D00008003C0240A7
:102790009CD0000800080650B0D0000890E9042042
:1027A00000E6DF0C83DE1B43C0D00008D4D0000855
:1027B000E4D00008FCD0000814D100082CD1000897
:1027C000001000A044D100080020014058D10008AA
:1027D0000021014068D100080000055078D10008B0
:1027E000001001400024F40088D10008004400409B
:1027F000A8D1000800480040C8D10008004C0040A3
:10280000E8D100080050004008D200080014014040
:1028100028D200080078004048D20008007C004020
:1028200068D2000880B500AF032000F0F9F900205D
:1028300000F006F8FEF7C0FA0023184680BD00003D
:1028400080B582B000AF7860124B1A68124B1B78CB
:1028500019464FF47A73B3FBF1F3B2FBF3F3184666
:1028600000F005FA0346002B01D001230EE07B683F
:102870000F2B0AD8002279684FF0FF3000F0DBF907
:10288000064A7B681360002300E0012318460837DE
:10289000BD4680BD000000200C0000200800002084
:1028A00080B400AF064B1B781A46064B1B681344D6
:1028B000044A136000BFBD465DF8047B704700BF4B
:1028C0000C0000202CEA042080B400AF034B1B68EE
:1028D0001846BD465DF8047B704700BF2CEA042013
:1028E00080B584B000AF7860FFF7EEFFB8607B681A
:1028F000FB60FB68B3F1FF3F05D0094B1B781A461C
:10290000FB681344FB6000BFFFF7DEFF0246BB68B5
:10291000D21AFB689A42F7D300BF1037BD4680BD7C
:102920000C00002080B485B000AF78600023FB600D
:102930007B6893F83C30012B01D10223ADE07B682A
:10294000012283F83C207B681B689B6803F001032D
:10295000012B18D07B681B687A681268926842F075
:1029600001029A60504B1B68504AA2FB03239A0C49
:1029700013465B001344FB6002E0FB68013BFB6015
:10298000FB68002BF9D17B681B689B6803F001038F
:10299000012B75D17B681A6C454B134043F4807250
:1029A0007B681A647B681B685B6803F48063002B98
:1029B00007D07B681B6C23F4405343F480527B6840
:1029C0001A647B681B6C03F48053B3F5805F06D1F7
:1029D0007B685B6C23F006027B685A6402E07B68CC
:1029E00000225A647B68002283F83C207B681B68C5
:1029F0006FF022021A602F4B5B6803F01F03002B5D
:102A00000FD17B681B689B6803F04053002B43D1B8
:102A10007B681B687A681268926842F080429A600C
:102A20003AE07B681B68244A93420ED17B681B689E
:102A30009B6803F04053002B07D17B681B687A68C2
:102A40001268926842F080429A601A4B5B6803F009
:102A50001003002B20D17B681B68184A93421BD1BE
:102A60007B681B689B6803F04053002B14D17B6884
:102A70001B687A681268926842F080429A600BE0A4
:102A80007B681B6C43F010027B681A647B685B6C8C
:102A900043F001027B685A64002318461437BD4690
:102AA0005DF8047B704700BF0000002083DE1B43FD
:102AB000FEF8FFFF002301400020014000220140FA
:102AC00080B485B000AF78607B6803F00703FB60DB
:102AD0000B4BDB68BB60BA684FF6FF031340BB606B
:102AE000FB681A02BB681A43064B1343BB60044AD7
:102AF000BB68D36000BF1437BD465DF8047B7047E8
:102B000000ED00E00000FA0580B400AF044BDB6884
:102B10001B0A03F007031846BD465DF8047B7047A7
:102B200000ED00E080B483B000AF03463960FB7174
:102B300097F90730002B0ADB0D4997F907303A68FF
:102B4000D2B21201D2B20B4483F800230AE0094941
:102B5000FB7903F00F03043B3A68D2B21201D2B200
:102B60000B441A7600BF0C37BD465DF8047B7047F6
:102B700000E100E000ED00E080B489B000AFF86053
:102B8000B9607A60FB6803F00703FB61FB69C3F17E
:102B90000703042B28BF0423BB61FB690433062B06
:102BA00002D9FB69033B00E000237B610122BB6982
:102BB00002FA03F35A1EBB681A407B699A4001214E
:102BC0007B6901FA03F3591E7B680B4013431846D7
:102BD0002437BD465DF8047B7047000080B582B0A5
:102BE00000AF78607B68013BB3F1807F01D30123A4
:102BF0000FE00A4A7B68013B53600F214FF0FF3022
:102C0000FFF790FF054B00229A60044B07221A60E1
:102C1000002318460837BD4680BD00BF10E000E025
:102C200080B582B000AF78607868FFF749FF00BFD9
:102C30000837BD4680BD80B586B000AF0346B96099
:102C40007A60FB7300237B61FFF75EFF78617A682F
:102C5000B9687869FFF790FF024697F90F3011467F
:102C60001846FFF75FFF00BF1837BD4680BD80B52F
:102C700082B000AF78607868FFF7B0FF034618466F
:102C80000837BD4680BD000080B586B000AF7860D3
:102C90000023BB60924B1B68924AA2FB03239B0A52
:102CA0007B617B689B6D3B613B691B68FB607B685C
:102CB000DB6D08229A40FB681340002B1AD07B681A
:102CC0001B681B6803F00403002B13D07B681B6890
:102CD0007A681268126822F004021A607B68DB6D61
:102CE00008229A403B699A607B685B6D43F0010261
:102CF0007B685A657B68DB6D01229A40FB68134054
:102D0000002B12D07B681B685B6903F08003002BEB
:102D10000BD07B68DB6D01229A403B699A607B682F
:102D20005B6D43F002027B685A657B68DB6D0422B1
:102D30009A40FB681340002B12D07B681B681B680D
:102D400003F00203002B0BD07B68DB6D04229A405A
:102D50003B699A607B685B6D43F004027B685A654F
:102D60007B68DB6D10229A40FB681340002B43D038
:102D70007B681B681B6803F00803002B3CD07B6852
:102D8000DB6D10229A403B699A607B681B681B6868
:102D900003F48023002B18D07B681B681B6803F4A6
:102DA0000023002B08D17B681B6C002B24D07B6890
:102DB0001B6C786898471FE07B689B6C002B1BD0CE
:102DC0007B689B6C7868984716E07B681B681B687B
:102DD00003F48073002B07D17B681B687A68126844
:102DE000126822F008021A607B681B6C002B03D06B
:102DF0007B681B6C786898477B68DB6D20229A4063
:102E0000FB681340002B00F08E807B681B681B68FA
:102E100003F01003002B00F086807B68DB6D20221E
:102E20009A403B699A607B6893F83530DBB2052B9A
:102E300036D17B681B687A681268126822F0160225
:102E40001A607B681B687A681268526922F08002F7
:102E50005A617B681B6C002B03D17B689B6C002B39
:102E600007D07B681B687A681268126822F0080233
:102E70001A607B68DB6D3F229A403B699A607B68F1
:102E8000002283F834207B68012283F835207B6898
:102E90001B6D002B7DD07B681B6D7868984778E0B0
:102EA0007B681B681B6803F48023002B1CD07B68A5
:102EB0001B681B6803F40023002B08D17B685B6C44
:102EC000002B30D07B685B6C786898472BE07B6880
:102ED000DB6B002B27D07B68DB6B7868984722E0A0
:102EE00000000020B5814E1B7B681B681B6803F443
:102EF0008073002B0FD17B681B687A681268126898
:102F000022F010021A607B68002283F834207B686C
:102F1000012283F835207B68DB6B002B03D07B68B4
:102F2000DB6B786898477B685B6D002B32D07B68E1
:102F30005B6D03F00103002B22D07B68052283F830
:102F400035207B681B687A681268126822F00102DB
:102F50001A60BB680133BB607A69934207D87B680B
:102F60001B681B6803F00103002BF2D100E000BFD7
:102F70007B68002283F834207B68012283F83520A7
:102F80007B68DB6C002B05D07B68DB6C786898472E
:102F900000E000BF1837BD4680BD00BF90B58DB0C2
:102FA00000AF78607B681B683B623B6AFB617B68B3
:102FB0001B68184602F099FF0346002B40F0D683A9
:102FC0007B681B68184602F0FDFE0346002B00F0EC
:102FD000CC837B681B68184602F0F4FE034603F0BE
:102FE0000203022B07D17B681B687A68126852695A
:102FF00002F002025A617B681B68184602F0E2FE8A
:10300000034603F01003102B61D17B681B687A68BC
:103010001268926922F010029A613B6A1B6ABB61D6
:10302000BB6903F00F021346DB009B1A9B0003F5FC
:10303000FC737A68134404337B61BB695B0C03F057
:103040000F03022B24D1BA6947F6F0731340002B0B
:1030500035D07B69D968BB691B099BB2C3F30A03EE
:103060009BB21A46386A02F080FD7B69DA68BB6958
:103070001B09C3F30A031A447B69DA607B699A6906
:10308000BB691B09C3F30A031A447B699A6116E002
:10309000BB695B0C03F00F03062B10D17B6803F5B3
:1030A000717308221946386A02F05FFD7B699A69DC
:1030B000BB691B09C3F30A031A447B699A617B68E5
:1030C0001B687A681268926942F010029A617B6804
:1030D0001B68184602F076FE034603F40023B3F59E
:1030E000002F6ED100237B627B681B68184602F0BC
:1030F0007CFEB86262E0BB6A03F00103002B57D08C
:103100007B681B687A6AD2B21146184602F0A1FEAB
:1031100038613B6903F00103002B0CD07B6A5A0134
:10312000FB69134403F530631A4601239360796AFF
:10313000786800F089FD3B6903F00803002B0CD090
:103140007B6A5A01FB69134403F530631A4608236E
:103150009360796A786800F083FE3B6903F010039E
:10316000002B08D07B6A5A01FB69134403F53063D6
:103170001A46102393603B6903F02003002B08D00C
:103180007B6A5A01FB69134403F530631A46202316
:1031900093603B6903F40053002B09D07B6A5A010A
:1031A000FB69134403F530631A464FF400539360F0
:1031B0007B6A01337B62BB6A5B08BB62BB6A002B24
:1031C00099D17B681B68184602F0FCFD034603F4A6
:1031D0008023B3F5802F40F0C1807B681B681846C0
:1031E00002F01DFEB86200237B62B3E0BB6A03F00D
:1031F0000103002B00F0A8807B681B687A6AD2B2BA
:103200001146184602F043FE38613B6903F00103A2
:10321000002B58D07B6A03F00F03012202FA03F35C
:10322000FB60FB6903F500631946FB6903F5006366
:103230005A6BFB68DB4313404B637B6A5A01FB69A3
:10324000134403F510631A46012393607B681B69DE
:10325000012B32D179687A6A1346DB009B1A9B00F6
:103260000B444833196878687A6A1346DB009B1A66
:103270009B00034444331B68194478687A6A1346F8
:10328000DB009B1A9B000344483319607B6A002BC8
:1032900013D179687A6A1346DB009B1A9B000B44B2
:1032A00050331B68002B08D17B6818687B6803F5D6
:1032B00071731A46012102F04DFE7B6ADBB219469A
:1032C000786803F094FF3B6903F00803002B08D0F3
:1032D0007B6A5A01FB69134403F510631A460823FD
:1032E00093603B6903F01003002B08D07B6A5A01FE
:1032F000FB69134403F510631A46102393603B697E
:1033000003F04003002B08D07B6A5A01FB69134489
:1033100003F510631A46402393603B6903F00203F0
:10332000002B08D07B6A5A01FB69134403F5106334
:103330001A46022393603B6903F08003002B03D0FD
:10334000796A786800F0F1FB7B6A01337B62BB6AC3
:103350005B08BB62BB6A002B7FF448AF7B681B68CD
:10336000184602F02FFD034603F00043B3F1004F6F
:1033700023D1FB6903F500631A46FB6903F500637B
:103380005B6823F0010353607B6893F8F433012BEF
:1033900008D17B68002283F8F4230021786804F0C8
:1033A000DFF802E0786803F09BFF7B681B687A68AF
:1033B0001268526902F000425A617B681B68184625
:1033C00002F000FD034603F40063B3F5006F12D171
:1033D000FB6903F500639B6803F00103012B02D135
:1033E000786803F055FF7B681B687A681268526939
:1033F00002F400625A617B681B68184602F0E2FC26
:10340000034603F00063B3F1006F21D17B681B68B2
:103410007A681268526902F000625A617B6893F818
:10342000F433002B11D17B68012283F8F4237B68ED
:103430001B685B6D9B0803F00F027B68C3F8F823E1
:103440000121786804F08CF802E0786803F020FF2E
:103450007B681B68184602F0B5FC034603F48053F2
:10346000B3F5805F40F0D180FB6903F500631A4635
:10347000FB6903F500635B6823F0010353607B681D
:103480001B681021184601F0A5FE0023FB625AE0DC
:10349000FB6A5A01FB69134403F510631A464FF6A1
:1034A0007F339360FB6A5A01FB69134403F5106391
:1034B0001946FB6A5A01FB69134403F510631B6844
:1034C00023F400130B60FB6A5A01FB69134403F5F4
:1034D00010631946FB6A5A01FB69134403F5106334
:1034E0001B6843F000630B60FB6A5A01FB691344DD
:1034F00003F530631A464FF67F339360FB6A5A0137
:10350000FB69134403F530631946FB6A5A01FB69F2
:10351000134403F530631B6823F400130B60FB6A4C
:103520005A01FB69134403F530631946FB6A5A01DB
:10353000FB69134403F530631B6843F000630B60C1
:10354000FB6A0133FB627B685A68FB6A9A429FD828
:10355000FB6903F500631A46FB6903F50063DB6949
:1035600043F00113D3617B681B6B002B18D0FB6900
:1035700003F500631A46FB6903F50063D3F8843052
:1035800043F00B03C2F88430FB6903F500631A466D
:10359000FB6903F500635B6C43F00B03536416E0B7
:1035A000FB6903F500631946FB6903F500635A697B
:1035B00042F22B0313434B61FB6903F500631A4688
:1035C000FB6903F500631B6943F00B031361FB699F
:1035D00003F500631A46FB6903F500631B6823F4D7
:1035E000FE6313607B6818687B681B69D9B27B68CF
:1035F00003F571731A4602F0ADFC7B681B687A68AC
:103600001268526902F480525A617B681B6818463E
:1036100002F0D8FB034603F40053B3F5005F24D156
:103620007B681B68184602F06FFC7B681B681846B5
:1036300001F0F6FD03461A467B68DA607B681C6879
:1036400001F0F4F801467B68DB68DBB21A462046DD
:1036500001F01EFD786803F0F2FD7B681B687A6854
:103660001268526902F400525A617B681B6818465E
:1036700002F0A8FB034603F00803082B0AD1786880
:1036800003F0CFFD7B681B687A681268526902F00C
:1036900008025A617B681B68184602F093FB0346D8
:1036A00003F48013B3F5801F0FD100237B627B6A84
:1036B000DBB21946786803F033FE7B681B687A68D2
:1036C0001268526902F480125A617B681B681846BE
:1036D00002F078FB034603F40013B3F5001F0FD18B
:1036E00000237B627B6ADBB21946786803F006FE32
:1036F0007B681B687A681268526902F400125A618A
:103700007B681B68184602F05DFB034603F08043AC
:10371000B3F1804F0AD1786803F014FE7B681B6810
:103720007A681268526902F080425A617B681B68AD
:10373000184602F047FB034603F00403042B15D19F
:103740007B681B685B68BB61BB6903F00403002BEB
:1037500002D0786803F004FE7B681B687A68126800
:103760005168BA690A435A6000E000BF3437BD4669
:1037700090BD80B582B000AF78600B46FB707B686F
:1037800093F8BC33012B01D1022313E07B680122A3
:1037900083F8BC237B68FA7883F838207B681B6841
:1037A000FA781146184602F0E5FA7B68002283F8A1
:1037B000BC23002318460837BD4680BD80B584B0C1
:1037C00000AF7860084611461A460346FB700B4668
:1037D0003B801346BB700023FB7297F90330002B2C
:1037E0000FDAFB7803F00F021346DB009B1A9B00F5
:1037F00038337A6813440433FB60FB6801225A7043
:103800000FE0FB7803F00F021346DB009B1A9B00CE
:1038100003F5FC737A6813440433FB60FB680022F1
:103820005A70FB7803F00F03DAB2FB681A703A881B
:10383000FB689A60FB68BA78DA70FB685B78002BEB
:1038400004D0FB681B789AB2FB68DA80BB78022B45
:1038500002D1FB6800221A717B6893F8BC33012BFC
:1038600001D102230EE07B68012283F8BC237B6830
:103870001B68F968184601F0F9FC7B68002283F8A0
:10388000BC23FB7A18461037BD4680BD80B586B094
:1038900000AFF8607A603B600B46FB72FB7A03F086
:1038A0000F021346DB009B1A9B0003F5FC73FA68BA
:1038B000134404337B617B697A68DA607B693A6818
:1038C0005A617B6900229A617B6900225A70FB7AF7
:1038D00003F00F03DAB27B691A70FB681B69012BD6
:1038E00002D17A687B691A61FB7A03F00F03002B1F
:1038F00009D1FB681868FB681B69DBB21A46796955
:1039000001F09CFF08E0FB681868FB681B69DBB2EC
:103910001A46796901F034FD002318461837BD4670
:1039200080BD80B586B000AFF8607A603B600B4622
:10393000FB72FB7A03F00F021346DB009B1A9B001D
:103940003833FA68134404337B617B697A68DA6040
:103950007B693A685A617B6900229A617B6901221E
:103960005A70FB7A03F00F03DAB27B691A70FB68B6
:103970001B69012B02D17A687B691A61FB7A03F01B
:103980000F03002B09D1FB681868FB681B69DBB2C9
:103990001A46796901F052FF08E0FB681868FB6875
:1039A0001B69DBB21A46796901F0EAFC002318466C
:1039B0001837BD4680BD80B584B000AF78600B4637
:1039C000FB70FB7803F00F027B685B689A4201D9B9
:1039D000012350E097F90330002B0FDAFB7803F056
:1039E0000F021346DB009B1A9B0038337A6813449E
:1039F0000433FB60FB6801225A700DE0FA7813462D
:103A0000DB009B1A9B0003F5FC737A6813440433B4
:103A1000FB60FB6800225A70FB6801229A70FB78F9
:103A200003F00F03DAB2FB681A707B6893F8BC33BB
:103A3000012B01D102231EE07B68012283F8BC2305
:103A40007B681B68F968184602F0B8F8FB7803F049
:103A50000F03002B0AD17B6818687B681B69D9B2F9
:103A60007B6803F571731A4602F074FA7B680022D2
:103A700083F8BC23002318461037BD4680BD80B5AF
:103A800084B000AF78600B46FB70FB7803F00F0248
:103A90007B685B689A4201D9012342E097F90330C1
:103AA000002B0FDAFB7803F00F021346DB009B1AA2
:103AB0009B0038337A6813440433FB60FB680122AF
:103AC0005A700FE0FB7803F00F021346DB009B1ADD
:103AD0009B0003F5FC737A6813440433FB60FB68B6
:103AE00000225A70FB6800229A70FB7803F00F03E3
:103AF000DAB2FB681A707B6893F8BC33012B01D1F2
:103B000002230EE07B68012283F8BC237B681B68DC
:103B1000F968184602F0C4F87B68002283F8BC23D9
:103B2000002318461037BD4680BD80B58AB002AF6D
:103B3000786039607B681B687B617B693B613A68B0
:103B40001346DB009B1A9B0038337A681344043316
:103B5000FB60FB689A69FB685B699A4201D90123A3
:103B60006DE0FB685A69FB689B69D31AFB61FB68CF
:103B70009A68FB699A4202D2FB689B68FB61FB6909
:103B800003339B08BB612BE0FB685A69FB689B69A8
:103B9000D31AFB61FB689A68FB699A4202D2FB6800
:103BA0009B68FB61FB6903339B08BB61FB68D968B9
:103BB0003B68DAB2FB6998B27B681B69DBB20093A1
:103BC0000346786901F09CFFFB68DA68FB691A44D8
:103BD000FB68DA60FB689A69FB691A44FB689A61C2
:103BE0003B685A013B69134403F510639B699AB221
:103BF000BB699A4209D3FB689A69FB685B699A4280
:103C000003D2FB685B69002BBED1FB685A69FB6875
:103C10009B699A4212D83B6803F00F03012202FA13
:103C200003F3BB603B6903F5006319463B6903F589
:103C300000635A6BBB68DB4313404B630023184699
:103C40002037BD4680BD000080B586B000AF7860EB
:103C500039607B681B687B617B693B617B693C33B6
:103C600004331B68FB603B685A013B69134403F54E
:103C700030639B68BB607B681B69012B40F0A080B0
:103C8000BB6803F00803002B15D0FB68724A93420F
:103C900040F2DD80BB6803F40043002B00F0D780C6
:103CA0003B685A013B69134403F530631A464FF4ED
:103CB00000439360CBE0BB6803F02003002B09D0E6
:103CC0003B685A013B69134403F530631A462023CD
:103CD0009360BCE0BB6803F02803002B40F0B78082
:103CE000FB685D4A93420FD9BB6803F40043002B85
:103CF0000AD03B685A013B69134403F530631A4606
:103D00004FF400439360A2E079683A681346DB0001
:103D10009B1A9B000B4403F501731A683B68590119
:103D20003B690B4403F530631B69C3F31203D11ADB
:103D300078683A681346DB009B1A9B00034403F53E
:103D40000573196079683A681346DB009B1A9B007B
:103D50000B4403F50273196878683A681346DB0070
:103D60009B1A9B00034403F501731B681944786890
:103D70003A681346DB009B1A9B00034403F5027369
:103D800019603B68002B14D179683A681346DB0050
:103D90009B1A9B000B4403F504731B68002B08D18E
:103DA0007B6818687B6803F571731A46012102F07D
:103DB000D1F83B68DBB21946786803F0FDF946E0BC
:103DC000FB68264A934224D1BB6803F40043002BCE
:103DD0000AD03B685A013B69134403F530631A4625
:103DE0004FF40043936032E0BB6803F02003002BE4
:103DF00008D03B685A013B69134403F530631A4607
:103E0000202393603B68DBB21946786803F0D4F94D
:103E10001DE03B68002B14D179683A681346DB003B
:103E20009B1A9B000B4403F504731B68002B08D1FD
:103E30007B6818687B6803F571731A46002102F0ED
:103E400089F83B68DBB21946786803F0B5F90023BE
:103E500018461837BD4680BD0A30544F0A31544FBA
:103E600080B586B000AF786039607B681B687B6185
:103E70007B693B617B693C3304331B68FB603B68B7
:103E80005A013B69134403F530639B68BB60FB68D0
:103E9000154A93420ED9BB6803F40043002B09D0A6
:103EA0003B685A013B69134403F530631A464FF4EB
:103EB00000439360786803F06DF9FB680A4A934207
:103EC0000CD97B681B69012B08D17B6818687B685B
:103ED00003F571731A46012102F03CF800231846DD
:103EE0001837BD4680BD00BF0A30544F80B582B040
:103EF00000AF00237B60234A224B1B6C43F08053AE
:103F00001364204B1B6C03F080533B603B681E4ADC
:103F10001D4B1B6843F480331360FEF7D5FC7860BB
:103F200009E0FEF7D1FC02467B68D31AB3F57A7F2D
:103F300001D9032322E0144B5B6803F48033B3F50B
:103F4000803FEED1104A104B1B6843F400331360DE
:103F5000FEF7BAFC786009E0FEF7B6FC02467B6823
:103F6000D31AB3F57A7F01D9032307E0064B5B68C8
:103F700003F40033B3F5003FEED1002318460837B1
:103F8000BD4680BD003802400070004080B586B05C
:103F900000AF78600023FB757B68002B01D1012303
:103FA0009BE27B681B6803F00103002B00F0878015
:103FB000964B9B6803F00C03042B0CD0934B9B682F
:103FC00003F00C03082B12D1904B5B6803F48003C1
:103FD000B3F5800F0BD18D4B1B6803F40033002B1E
:103FE0006CD07B685B68002B68D1012375E27B682D
:103FF0005B68B3F5803F06D1844A844B1B6843F469
:10400000803313602EE07B685B68002B0CD17F4A05
:104010007E4B1B6823F4803313607C4A7B4B1B6808
:1040200023F4802313601DE07B685B68B3F5A02F49
:104030000CD1764A754B1B6843F480231360734A96
:10404000724B1B6843F4803313600BE06F4A6F4B75
:104050001B6823F4803313606C4A6C4B1B6823F499
:10406000802313607B685B68002B13D0FEF72CFC69
:10407000386108E0FEF728FC02463B69D31A642B3E
:1040800001D9032329E2614B1B6803F40033002BA1
:10409000F0D014E0FEF718FC386108E0FEF714FCDD
:1040A00002463B69D31A642B01D9032315E2574B0F
:1040B0001B6803F40033002BF0D100E000BF7B68E5
:1040C0001B6803F00203002B69D0504B9B6803F080
:1040D0000C03002B0BD04D4B9B6803F00C03082BFB
:1040E0001CD14A4B5B6803F48003002B16D1474B6D
:1040F0001B6803F00203002B05D07B68DB68012BF3
:1041000001D00123E9E14149404B1B6823F0F8024B
:104110007B681B69DB0013430B6040E07B68DB6856
:10412000002B23D0394A394B1B6843F0010313603D
:10413000FEF7CAFB386108E0FEF7C6FB02463B69A2
:10414000D31A022B01D90323C7E1304B1B6803F0BC
:104150000203002BF0D02D492C4B1B6823F0F802F2
:104160007B681B69DB0013430B6018E0274A274B71
:104170001B6823F001031360FEF7A6FB386108E01B
:10418000FEF7A2FB02463B69D31A022B01D9032397
:10419000A3E11E4B1B6803F00203002BF0D17B68E8
:1041A0001B6803F00803002B38D07B685B69002B89
:1041B00019D0164A154B5B6F43F001035367FEF7A6
:1041C00083FB386108E0FEF77FFB02463B69D31AA8
:1041D000022B01D9032380E10C4B5B6F03F0020338
:1041E000002BF0D01AE0094A084B5B6F23F0010363
:1041F0005367FEF769FB38610AE0FEF765FB02468C
:104200003B69D31A022B03D9032366E1003802402D
:10421000924B5B6F03F00203002BEED17B681B68AF
:1042200003F00403002B00F0A4808C4B1B6C03F004
:104230008053002B0DD1894A884B1B6C43F080536F
:104240001364864B1B6C03F08053BB60BB68012377
:10425000FB75834B1B6803F48073002B18D1804AD5
:104260007F4B1B6843F480731360FEF72DFB3861AE
:1042700008E0FEF729FB02463B69D31A642B01D9FB
:1042800003232AE1764B1B6803F48073002BF0D0E4
:104290007B689B68012B06D1704A704B1B6F43F003
:1042A000010313672DE07B689B68002B0CD16B4AE0
:1042B0006A4B1B6F23F001031367684A674B1B6F40
:1042C00023F0040313671CE07B689B68052B0CD16B
:1042D000624A624B1B6F43F0040313675F4A5F4BF4
:1042E0001B6F43F0010313670BE05C4A5B4B1B6FD2
:1042F00023F001031367594A584B1B6F23F0040343
:1043000013677B689B68002B15D0FEF7DDFA3861D8
:104310000AE0FEF7D9FA02463B69D31A41F2883225
:10432000934201D90323D8E04C4B1B6F03F00203E7
:10433000002BEED014E0FEF7C7FA38610AE0FEF772
:10434000C3FA02463B69D31A41F28832934201D93B
:104350000323C2E0414B1B6F03F00203002BEED19D
:10436000FB7D012B05D13D4A3C4B1B6C23F0805358
:1043700013647B689B69002B00F0AE80374B9B6811
:1043800003F00C03082B6DD07B689B69022B4BD18B
:10439000324A324B1B6823F080731360FEF794FAA5
:1043A000386108E0FEF790FA02463B69D31A022B07
:1043B00001D9032391E0294B1B6803F00073002B04
:1043C000F0D126497B68DA697B681B6A1A437B68EF
:1043D0005B6A9B011A437B689B6A5B08013B1B0479
:1043E0001A437B68DB6A1B061A437B681B6B1B073F
:1043F00013434B60194A194B1B6843F080731360D9
:10440000FEF762FA386108E0FEF75EFA02463B69A1
:10441000D31A022B01D903235FE0104B1B6803F072
:104420000073002BF0D057E00C4A0C4B1B6823F0B4
:1044300080731360FEF748FA386108E0FEF744FA2B
:1044400002463B69D31A022B01D9032345E0034BF3
:104450001B6803F00073002BF0D13DE000380240F0
:10446000007000401F4B5B68FB607B689B69012B01
:1044700030D0FB6803F480027B68DB699A4229D163
:10448000FB6803F03F027B681B6A9A4222D1FA68FC
:1044900047F6C07313407A68526A9201934219D169
:1044A000FB6803F440327B689B6A5B08013B1B049A
:1044B0009A420FD1FB6803F070627B68DB6A1B06CF
:1044C0009A4207D1FB6803F0E0427B681B6B1B0735
:1044D0009A4201D0012300E0002318461837BD4658
:1044E00080BD00BF0038024080B584B000AF786066
:1044F00039600023FB607B68002B01D10123D0E0F1
:104500006A4B1B6803F00F023B689A4210D267495E
:10451000664B1B6823F00F023B6813430B60634B31
:104520001B6803F00F023B689A4201D00123B8E0F8
:104530007B681B6803F00203002B20D07B681B689C
:1045400003F00403002B05D0594A594B9B6843F4F0
:10455000E05393607B681B6803F00803002B05D0D1
:10456000534A534B9B6843F4604393605049504B0C
:104570009B6823F0F0027B689B6813438B607B6829
:104580001B6803F00103002B40D07B685B68012BA4
:1045900007D1474B1B6803F40033002B15D10123CF
:1045A0007FE07B685B68022B07D1414B1B6803F0FF
:1045B0000073002B09D1012373E03D4B1B6803F00E
:1045C0000203002B01D101236BE03949384B9B6872
:1045D00023F003027B685B6813438B60FEF774F97A
:1045E000F8600AE0FEF770F90246FB68D31A41F260
:1045F0008832934201D9032353E02D4B9B6803F08B
:104600000C027B685B689B009A42EBD1274B1B68CE
:1046100003F00F023B689A4210D92449234B1B68D0
:1046200023F00F023B6813430B60204B1B6803F021
:104630000F023B689A4201D0012332E07B681B687D
:1046400003F00403002B08D01949194B9B6823F48D
:10465000E0527B68DB6813438B607B681B6803F068
:104660000803002B09D01249114B9B6823F46042C8
:104670007B681B69DB0013438B6000F021F8014667
:104680000B4B9B681B0903F00F030A4AD35C21FA0A
:1046900003F3094A1360094B1B681846FEF7D0F86C
:1046A000002318461037BD4680BD00BF003C0240C5
:1046B0000038024088D200080000002008000020D6
:1046C0002DE9F04F87B000AF0022FA6000227A6136
:1046D0000022BA6000223A61514A926802F00C024C
:1046E000042A07D0082A08D0002A40F090804D4BB9
:1046F0003B618FE04C4B3B618CE0494A526802F0D1
:104700003F02FA60464A526802F48002002A23D02F
:10471000434B5B689B094FF0000440F2FF114FF0E0
:10472000000203EA010304EA02043F4A02FB04F127
:10473000002202FB03F20A443B49A3FB0101531888
:104740001946FB684FF000041A462346FBF730FE7B
:1047500003460C467B614CE0314A5268920911468F
:104760004FF0000240F2FF154FF0000605EA010588
:1047700006EA0206294632464FEA421B4BEAD16B53
:104780004FEA411A51465A46AA46B34655465E4636
:104790004D1B62EB060629463246940144EA9164B9
:1047A0008B015B1A64EB02044FEAC40949EA5379AE
:1047B0004FEAC30843464C4655465E46ED1846EB65
:1047C00004062B463446A2027A607A6842EA935283
:1047D0007A609B023B6097E8180018462146FB6808
:1047E0004FF000041A462346FBF7E2FD03460C4651
:1047F0007B610B4B5B681B0C03F0030301335B0015
:10480000BB607A69BB68B2FBF3F33B6102E0054B26
:104810003B6100BF3B6918461C37BD46BDE8F08FC1
:10482000003802400024F400002D310180B400AFB4
:10483000034B1B681846BD465DF8047B704700BFFC
:104840000000002080B588B000AF786000237B6155
:1048500000233B610023FB600023FB610023BB615D
:104860007B681B6803F00103002B12D0694A694B77
:104870009B6823F4000393606649664B9A687B68E3
:104880005B6B13438B607B685B6B002B01D1012357
:10489000FB617B681B6803F40023002B17D05D4984
:1048A0005C4BD3F88C3023F440127B68DB6B1343F2
:1048B000C1F88C307B68DB6BB3F5801F01D101231D
:1048C000FB617B68DB6B002B01D10123BB617B6843
:1048D0001B6803F48013002B17D04E494D4BD3F8BF
:1048E0008C3023F440027B681B6C1343C1F88C307E
:1048F0007B681B6CB3F5800F01D10123FB617B68E2
:104900001B6C002B01D10123BB617B681B6803F08A
:104910008073002B01D00123FB617B681B6803F0CF
:104920002003002B00F08B803A4A3A4B1B6C43F07B
:1049300080531364374B1B6C03F08053BB60BB6820
:10494000354A354B1B6843F480731360FDF7BCFF99
:10495000786108E0FDF7B8FF02467B69D31A642B43
:1049600001D903238DE32C4B1B6803F48073002BC8
:10497000F0D0284B1B6F03F440733B613B69002B65
:1049800035D07B681B6B03F440723B699A422ED092
:10499000204B1B6F23F440733B611E4A1D4B1B6F62
:1049A00043F4803313671B4A1A4B1B6F23F4803385
:1049B0001367184A3B691367164B1B6F03F001031B
:1049C000012B14D1FDF780FF78610AE0FDF77CFF31
:1049D00002467B69D31A41F28832934201D90323FC
:1049E0004FE30C4B1B6F03F00203002BEED07B68F0
:1049F0001B6B03F44073B3F5407F11D10548054BA1
:104A00009B6823F4F8127B68196B044B0B4013432B
:104A100083600BE00038024000700040FFFCFF0F95
:104A2000B24AB24B9B6823F4F8139360AF49AF4B83
:104A30001A6F7B681B6BC3F30B0313430B677B6815
:104A40001B6803F01003002B10D0A84AA74BD3F823
:104A50008C3023F08073C2F88C30A449A34BD3F878
:104A60008C207B689B6B1343C1F88C307B681B6880
:104A700003F48043002B0AD09C499C4BD3F8903020
:104A800023F440327B685B6E1343C1F890307B683F
:104A90001B6803F40043002B0AD09449934BD3F8CE
:104AA000903023F440227B689B6E1343C1F8903012
:104AB0007B681B6803F48033002B0AD08B498B4B37
:104AC000D3F8903023F440127B68DB6E1343C1F8B7
:104AD00090307B681B6803F40033002B0AD08349B5
:104AE000824BD3F8903023F440027B681B6F134352
:104AF000C1F890307B681B6803F04003002B0AD09C
:104B00007A497A4BD3F8903023F003027B685B6CD0
:104B10001343C1F890307B681B6803F08003002BBF
:104B20000AD07249714BD3F8903023F00C027B68A5
:104B30009B6C1343C1F890307B681B6803F480734F
:104B4000002B0AD06949694BD3F8903023F030022A
:104B50007B68DB6C1343C1F890307B681B6803F4FF
:104B60000073002B0AD06149604BD3F8903023F0DA
:104B7000C0027B681B6D1343C1F890307B681B68D3
:104B800003F48063002B0AD05849584BD3F8903077
:104B900023F440727B685B6D1343C1F890307B68EF
:104BA0001B6803F40063002B0AD050494F4BD3F825
:104BB000903023F440627B689B6D1343C1F89030C2
:104BC0007B681B6803F48053002B0AD04749474B8E
:104BD000D3F8903023F440527B68DB6D1343C1F867
:104BE00090307B681B6803F40053002B0AD03F49C8
:104BF0003E4BD3F8903023F440427B681B6E134346
:104C0000C1F890307B681B6803F48003002B0AD046
:104C10003649364BD3F8903023F080627B689B6F27
:104C20001343C1F890307B681B6803F40013002B1A
:104C300011D02E492D4BD3F8903023F000627B68C1
:104C4000DB6F1343C1F890307B68DB6FB3F1006F0B
:104C500001D10123BB617B681B6803F00803002BB3
:104C600001D00123BB617B681B6803F48023002B08
:104C70000AD01E491D4BD3F8903023F040727B6858
:104C80005B6F1343C1F890307B681B6803F400032B
:104C9000002B0BD01549154BD3F8903023F08052E0
:104CA0007B68D3F880301343C1F890307B681B6871
:104CB00003F08063002B0BD00C490C4BD3F89030E1
:104CC00023F000527B68D3F884301343C1F890304E
:104CD0007B681B6803F00063002B0ED00349034B75
:104CE000D3F88C3023F000727B6801E0003802407A
:104CF000D3F888301343C1F88C307B681B6803F00D
:104D00008053002B0BD08149804BD3F88C3023F09B
:104D100080627B68D3F88C301343C1F88C30FB6918
:104D2000012B06D07B681B6803F00073002B00F09A
:104D3000D680764A754B1B6823F080631360FDF7BD
:104D4000C3FD786108E0FDF7BFFD02467B69D31A19
:104D5000642B01D9032394E16C4B1B6803F00063BF
:104D6000002BF0D17B681B6803F00103002B21D0DE
:104D70007B685B6B002B1DD1644BD3F884301B0C1C
:104D800003F003033B61614BD3F884301B0E03F047
:104D90000F03FB605D497B685B689A013B691B04FC
:104DA0001A43FB681B061A437B689B681B07134367
:104DB000C1F884307B681B6803F40023002B04D007
:104DC0007B68DB6BB3F5801F0AD07B681B6803F43C
:104DD0008013002B2ED07B681B6CB3F5800F29D17C
:104DE0004A4BD3F884301B0C03F003033B61474B61
:104DF000D3F884301B0F03F00703FB6043497B6843
:104E00005B689A013B691B041A437B68DB681B06DD
:104E10001A43FB681B071343C1F884303B493B4BE3
:104E2000D3F88C3023F01F027B685B6A013B13438D
:104E3000C1F88C307B681B6803F08073002B1DD099
:104E4000324BD3F884301B0E03F00F033B612F4B22
:104E5000D3F884301B0F03F00703FB602B497B68FA
:104E60005B689A017B681B691B041A433B691B063C
:104E70001A43FB681B071343C1F884307B681B6827
:104E800003F00073002B11D020497B685B689A0106
:104E90007B681B691B041A437B68DB681B061A438B
:104EA0007B689B681B071343C1F88430174A174B74
:104EB0001B6843F080631360FDF706FD786108E02E
:104EC000FDF702FD02467B69D31A642B01D9032347
:104ED000D7E00E4B1B6803F00063002BF0D0BB69DA
:104EE000012B40F0CD80094A084B1B6823F080530A
:104EF0001360FDF7E9FC78610AE0FDF7E5FC024686
:104F00007B69D31A642B03D90323BAE0003802402B
:104F10005E4B1B6803F00053B3F1005FEDD07B687C
:104F20001B6803F40023002B03D07B68DB6B002B92
:104F300009D07B681B6803F48013002B2ED07B689C
:104F40001B6C002B2AD1514BD3F888301B0C03F07B
:104F500003033B614D4BD3F888301B0F03F007036D
:104F6000FB604A497B685B699A013B691B041A43F1
:104F70007B689B691B061A43FB681B071343C1F838
:104F800088304249414BD3F88C3023F4F8527B6887
:104F90009B6A013B1B021343C1F88C307B681B6882
:104FA00003F40013002B22D07B68DB6FB3F1006F9A
:104FB0001DD1364BD3F888301B0E03F00F033B6135
:104FC000324BD3F888301B0F03F00703FB602F49E7
:104FD0007B685B699A017B681B6A1B041A433B6907
:104FE0001B061A43FB681B071343C1F888307B6814
:104FF0001B6803F00803002B28D0244BD3F888301B
:105000001B0E03F00F033B61204BD3F888301B0CC1
:1050100003F00303FB601D497B685B699A01FB6831
:105020001B041A433B691B061A437B68DB691B0799
:105030001343C1F888301549144BD3F88C3023F44E
:1050400040327B68DB6A1343C1F88C300F4A0F4B48
:105050001B6843F080531360FDF736FC786108E06D
:10506000FDF732FC02467B69D31A642B01D9032376
:1050700007E0064B1B6803F00053B3F1005FEFD16C
:10508000002318462037BD4680BD00BF00380240CF
:1050900080B487B000AFF860B9601346FB71FB794C
:1050A000022B65D1BB68414A934206D9BB68404A8E
:1050B000934202D80F237B6162E0BB683C4A934273
:1050C00006D9BB683B4A934202D80E237B6157E066
:1050D000BB68384A934206D9BB68374A934202D824
:1050E0000D237B614CE0BB68334A934206D9BB6811
:1050F000324A934202D80C237B6141E0BB682F4ABD
:10510000934206D9BB682E4A934202D80B237B6197
:1051100036E0BB682A4A934206D9BB68294A9342C3
:1051200002D80A237B612BE0BB68264A934206D94A
:10513000BB68254A934202D809237B6120E0BB6803
:10514000214A934206D9BB68204A934202D80823D9
:105150007B6115E0BB681D4A934206D9BB681C4AB7
:10516000934202D807237B610AE006237B6107E0B4
:10517000FB79002B02D109237B6101E009237B61CC
:10518000FB68DB6823F47052FB68DA60FB68DA685E
:105190007B699B0203F470531A43FB68DA600023B7
:1051A00018461C37BD465DF8047B7047BFACD8007D
:1051B000BFE1E400FF23F4007F7306019F491A0159
:1051C000FF2C31013FA44C01FF356E011FABA6013E
:1051D000FF47E80180B485B000AF786039600023F4
:1051E000FB603B689B0143F020027B681A61FB680F
:1051F0000133FB60FB68094A934201D9032306E0AF
:105200007B681B6903F02003202BF0D00023184695
:105210001437BD465DF8047B704700BF400D0300A6
:1052200080B487B000AF78607B683B613B6903F571
:1052300000639B6803F00603FB60FB68002B02D150
:105240000023FB750AE0FB68022B02D0FB68062BEB
:1052500002D10223FB7501E00F23FB75FB7D18468D
:105260001C37BD465DF8047B7047000080B485B0F4
:1052700000AF786039607B68FB603B681B78BB607F
:105280003B685B78012B3AD1FB6803F50063184655
:10529000FB6803F50063DA693B681B7803F00F03D2
:1052A000012101FA03F39BB21343C361BB685A01A6
:1052B000FB68134403F510631B6803F40043002BE1
:1052C00054D1BB685A01FB68134403F510631846B8
:1052D000BB685A01FB68134403F510631A683B6806
:1052E0009B68C3F30A013B68DB789B041943BB68E6
:1052F0009B050B431A43214B1343036036E0FB68C5
:1053000003F500631846FB6803F50063DA693B6840
:105310001B7803F00F03012101FA03F31B0413436D
:10532000C361BB685A01FB68134403F530631B6813
:1053300003F40043002B19D1BB685A01FB681344E6
:1053400003F530631846BB685A01FB68134403F544
:1053500030631A683B689B68C3F30A013B68DB78DB
:105360009B040B431A43054B134303600023184669
:105370001437BD465DF8047B704700BF0080001005
:1053800080B58AB002AFF860B9601346FB71FB6864
:10539000FB61BB681B78BB61BB685B78012B40F08D
:1053A0006F81BB685B69002B33D1BB695A01FB6914
:1053B000134403F510631946BB695A01FB69134492
:1053C00003F510631A69AB4B13400B61BB695A01BB
:1053D000FB69134403F510631946BB695A01FB6965
:1053E000134403F510631B6943F400230B61BB698D
:1053F0005A01FB69134403F510631946BB695A014E
:10540000FB69134403F510631A699B4B13400B614E
:1054100078E0BB695A01FB69134403F51063194630
:10542000BB695A01FB69134403F510631A69924B77
:1054300013400B61BB695A01FB69134403F5106308
:105440001946BB695A01FB69134403F510631A69D5
:10545000884B13400B61BB695A01FB69134403F588
:1054600010631846BB695A01FB69134403F51063C6
:105470001A69BB685969BB689B680B44591EBB68B5
:105480009B68B1FBF3F3D9047C4B0B4013430361DE
:10549000BB695A01FB69134403F510631946BB69E4
:1054A0005A01FB69134403F510631A69BB685B6911
:1054B000C3F3120313430B61BB68DB78012B21D1CB
:1054C000BB695A01FB69134403F510631946BB69B4
:1054D0005A01FB69134403F510631B6923F0C043B1
:1054E0000B61BB695A01FB69134403F5106319464C
:1054F000BB695A01FB69134403F510631B6943F050
:1055000000530B61FB79012B4ED1BB681B69002B4B
:1055100009D0BB695A01FB69134403F510631A46AD
:10552000BB681B695361BB68DB78012B2AD1FB691F
:1055300003F500639B6803F48073002B11D1BB69F2
:105540005A01FB69134403F510631946BB695A01FC
:10555000FB69134403F510631B6843F000530B60B1
:1055600010E0BB695A01FB69134403F51063194647
:10557000BB695A01FB69134403F510631B6843F0D0
:1055800080530B60BB695A01FB69134403F5106338
:105590001946BB695A01FB69134403F510631B6884
:1055A00043F004430B603EE1BB695A01FB691344BD
:1055B00003F510631946BB695A01FB69134403F5EF
:1055C00010631B6843F004430B60BB68DB78012B5E
:1055D00016D0BB685B69002B00F02581FB6903F5E1
:1055E00000631846FB6903F500635A6BBB681B78C0
:1055F00003F00F03012101FA03F31343436312E1A4
:10560000FB6903F500639B6803F48073002B11D1E1
:10561000BB695A01FB69134403F510631946BB6962
:105620005A01FB69134403F510631B6843F00053F0
:105630000B6010E0BB695A01FB69134403F510636A
:105640001946BB695A01FB69134403F510631B68D3
:1056500043F080530B60BB68D968BB681A78BB689D
:105660005B6998B2FB7900930346F86800F048FA4A
:10567000D9E000BFFFFF07E00000F8FF0000F81FBF
:10568000BB695A01FB69134403F530631946BB69D2
:105690005A01FB69134403F530631A69644B1340E4
:1056A0000B61BB695A01FB69134403F5306319466A
:1056B000BB695A01FB69134403F530631A695D4BFA
:1056C00013400B61BB685B69002B25D1BB695A0194
:1056D000FB69134403F530631946BB695A01FB6942
:1056E000134403F530631A69BB689B68C3F3120364
:1056F00013430B61BB695A01FB69134403F5306323
:105700001946BB695A01FB69134403F530631B69F1
:1057100043F400230B6135E0BB685A69BB689B68A2
:1057200013445A1EBB689B68B2FBF3F3FB82BB6950
:105730005A01FB69134403F530631846BB695A01EB
:10574000FB69134403F530631A69FB8AD9043A4BA9
:105750000B4013430361BB695A01FB69134403F512
:1057600030631846BB695A01FB69134403F5306383
:105770001A69BB689B68F98A01FB03F3C3F3120340
:1057800013430361FB79012B0DD1BB68DB68002B50
:1057900009D0BB695A01FB69134403F530631A460B
:1057A000BB68DB685361BB68DB78012B2AD1FB69DE
:1057B00003F500639B6803F48073002B11D1BB6970
:1057C0005A01FB69134403F530631946BB695A015A
:1057D000FB69134403F530631B6843F000530B600F
:1057E00010E0BB695A01FB69134403F530631946A5
:1057F000BB695A01FB69134403F530631B6843F02E
:1058000080530B60BB695A01FB69134403F5306395
:105810001946BB695A01FB69134403F530631B68E1
:1058200043F004430B60002318462037BD4680BD7B
:105830000000F8FFFFFF07E00000F81F80B487B00A
:1058400000AFF860B9601346FB71FB687B61BB6811
:105850001B783B61BB685B78012B40F0D480BB6850
:105860005B69002B33D13B695A017B69134403F513
:10587000106319463B695A017B69134403F51063B1
:105880001A699D4B13400B613B695A017B691344B4
:1058900003F5106319463B695A017B69134403F50C
:1058A00010631B6943F400230B613B695A017B6958
:1058B000134403F5106319463B695A017B6913448D
:1058C00003F510631A698D4B13400B6150E03B697F
:1058D0005A017B69134403F5106319463B695A0169
:1058E0007B69134403F510631A69844B13400B6101
:1058F0003B695A017B69134403F5106319463B6900
:105900005A017B69134403F510631A697A4B1340FB
:105910000B61BB685A69BB689B689A4203D9BB6834
:105920009A68BB685A613B695A017B69134403F565
:10593000106319463B695A017B69134403F51063F0
:105940001B6943F400230B613B695A017B691344D3
:1059500003F5106319463B695A017B69134403F54B
:1059600010631A69BB685B69C3F3120313430B61CD
:10597000FB79012B1FD1BB681B69002B09D03B6948
:105980005A017B69134403F510631A46BB681B690F
:1059900053613B695A017B69134403F5106319464F
:1059A0003B695A017B69134403F510631B6843F09C
:1059B00004430B6098E03B695A017B69134403F58B
:1059C000106319463B695A017B69134403F5106360
:1059D0001B6843F004430B60BB685B69002B00F05D
:1059E00083807B6903F5006318467B6903F50063D8
:1059F0005A6BBB681B7803F00F03012101FA03F314
:105A00001343436370E03B695A017B69134403F518
:105A1000306319463B695A017B69134403F53063CF
:105A20001A69364B13400B613B695A017B69134479
:105A300003F5306319463B695A017B69134403F54A
:105A400030631A692C4B13400B61BB685B69002BF8
:105A500003D0BB689A68BB685A613B695A017B698D
:105A6000134403F5306319463B695A017B691344BB
:105A700003F530631B6943F400230B613B695A0152
:105A80007B69134403F5306319463B695A017B690E
:105A9000134403F530631A69BB689B68C3F31203B0
:105AA00013430B61FB79012B0DD1BB68DB68002B25
:105AB00009D03B695A017B69134403F530631A46E8
:105AC000BB68DB6853613B695A017B69134403F58A
:105AD000306319463B695A017B69134403F530630F
